:020000040800F2
:1010000000500020E53E0008E33E0008E13E0008F5
:10101000E13E0008E13E0008E13E0008000000005B
:10102000000000000000000000000000E33E000897
:10103000E33E000800000000E33E0008E33E000835
:10104000E13E0008E13E0008E13E0008E13E000804
:10105000E13E0008E13E0008E13E0008E13E0008F4
:10106000E13E0008E13E0008E13E0008E13E0008E4
:10107000E13E0008E13E0008E13E0008E13E0008D4
:10108000E13E0008E13E0008E13E0008E13E0008C4
:10109000E13E0008E13E0008E13E0008E13E0008B4
:1010A0003519000855190008E13E0008E13E000826
:1010B000ED1F0008E13E0008E13E0008E13E0008A7
:1010C000E13E0008E13E0008E13E0008E13E000884
:1010D000E13E0008E13E0008E13E0008E13E000874
:1010E000E13E0008E13E0008E13E0008E13E000864
:1010F000E13E0008E13E0008E13E0008E13E000854
:10110000E13E0008E13E0008E13E0008E13E000843
:10111000E13E0008E13E0008E13E0008E13E000833
:10112000E13E0008E13E0008E13E0008E13E000823
:10113000E13E0008E13E0008E13E0008E13E000813
:10114000E13E0008E13E0008E13E0008E13E000803
:10115000F8B5202001F036F8154A0646222092E81C
:1011600028001D4401F02EF80746232001F02AF83C
:101170000224384490FBF4F3734395FBF4F55B11C0
:10118000EA1A1D446E110B4D52112846214622EADF
:10119000E27202F095FD2846B6F5805FB4BF324694
:1011A0004FF480520421BDE8F84002F089BD00BF31
:1011B00074010020000800402DE9F04F002487B0A2
:1011C0002546EEB2B01CC0B201F046FE47012E200B
:1011D00000F0FEFFDFF8F88118B948F80470FFF757
:1011E000B7FF58F8043006F12200C0B2FF1A00F031
:1011F000E9FF7F0197FBF0F7DFF8D88106F13100B6
:101200003946C0B200F0F4FF54F80830002FB8BFE0
:101210007F429F42ACBF39461946684F44F80810D8
:10122000D7F80090B9F1000F0BD11623594306F1FE
:101230003400491144F80810C0B200F0D9FF44F856
:1012400008900135022D04F10404BAD13B68002B4B
:1012500040F098803F2000F0B5FF04463E2000F0AB
:10126000B1FF8046312000F0ADFF8146322000F012
:10127000A9FF06462F2000F0A5FF514B4FF0160B9B
:101280001B880BFB00F05B01640194FBF3F44D4BF6
:10129000DFF844A131461A8845114B4E484601F00B
:1012A00097FFDAF8003030685B4340435B1103EB93
:1012B000601001F0FBFA654336686D1106FB05FC12
:1012C0003C234FEA6C1C024698FBF3F8C9200CFB48
:1012D00004FC00FB08F84FEA6C1C4FEA4C114FEA83
:1012E000681891FBF8F8DAF80010CDF8108069431F
:1012F0004FF47A78491191FBF8F161434911059156
:101300004FEA461931466643362099FBF2F90193BC
:101310000292CDF80CC0761100F06AFFDAF80010E6
:10132000372000F065FF0BFB06F13020491100F07B
:101330005FFF29EAE9792946332000F059FFB9F126
:10134000200FB4BF494620213B2000F051FFDDF8BB
:101350000CC038209CFBF8F100F04AFF05993920B9
:1013600000F046FF029A3A206A43521192FBF8F8C5
:1013700008FB04F1491100F03BFF019B049918465A
:1013800000F036FF3B68114C0133DBB23B60236851
:1013900073B90E2001F0ACF9282000F019FF0546C2
:1013A0003E2000F015FF400095FBF0F5256001E0C0
:1013B000013B236007B0BDE8F08F00BF640100204F
:1013C000804D00086A0100201C03002070010020ED
:1013D00074010020840100202003002038B5432040
:1013E00000F0F6FE0446042001F082F901F0B0FBA3
:1013F00001463E2000F0F4FE01F0AAFB632814D859
:10140000092001F04FF928B10A2001F04BF908B981
:1014100001240AE0092001F045F930B90A2001F061
:1014200041F9002818BF4FF0FF34092001F03AF9C4
:1014300028B90A2001F036F9002808BF0024204608
:1014400001F004FF0B2001F02DF950B1082001F04C
:1014500029F930B10C2001F025F910B14D200121FE
:1014600001E04D20002100F0BBFE072001F01AF939
:10147000324DB8B9152000F0ABFE40B9052001F09F
:1014800011F998B101F064FB2D4B18600EE00520B6
:1014900001F008F910B12B78002B49D0052001F09C
:1014A00001F918B9264B4FF0FF321A60052001F000
:1014B000F9F821462870432000F092FE052001F043
:1014C000F1F80146462000F08BFE062001F0EAF814
:1014D0000146472000F084FE072001F0E3F80146B2
:1014E000482000F07DFE082001F0DCF8014649208C
:1014F00000F076FE092001F0D5F801464A2000F000
:101500006FFE0A2001F0CEF801464B2000F068FE85
:101510000B2001F0C7F801464C2000F061FE0D20C1
:1015200001F0C0F8BDE8384001464E2000F058BE3A
:1015300001F00EFB024B1860B0E700BF580100201D
:101540004C03002038B50A2000F042FE094B0B3056
:10155000C4B20C201C7000F03BFE05460B2000F0CE
:1015600037FEA9B20246204600F026FC024B188046
:1015700038BD00BF7E0100207C0100202DE9F04F26
:101580002E2085B000F024FE07461D2000F01AFE34
:1015900080461E2000F016FE06461F2000F012FEB8
:1015A0000446242000F00EFE8146042001F054FC85
:1015B000984B1A6800EB4210821A52111A6092027C
:1015C00092FBF9F545454FF0020001DBB54202DD23
:1015D00001F07AF801E001F081F8A54206DD2E2045
:1015E000002100F0FDFD012001F06EF829462F20BA
:1015F00000F0FEFD002001F02FFC0290012001F020
:101600002BFC02990390402000F0EAFD0399412051
:1016100000F0E6FD02A8002101F01EFE10B9012035
:1016200001F052F8012103A801F016FE4820029EA5
:10163000039C00F0CDFD021C18BF0122214630465C
:1016400001F02AFE814601F083FA01F061FE0446B2
:10165000442000F0B7FD01F099FE6F4A4C45B8BF39
:101660004C4613680646002B11DD6C4A1268934203
:101670000DDD01F06DFA01F05DFEB9F1000F05DB43
:1016800005D04845ACBF04464C4600E004464E2019
:1016900000F09EFD90B1002C07DB162000F098FDB5
:1016A0008442C0F23C81162005E0172000F090FD36
:1016B00084420BDC172000F08BFD0446632E0EDC09
:1016C000002C05DBB442A8BF344605E0632E06DCDF
:1016D0007642B442B8BF3446012000F0F5FF2146FF
:1016E000422000F07DFD262000F072FD824627207A
:1016F00000F06EFD8146252000F06AFD834629201A
:1017000000F066FD80462A2000F062FD444C014650
:1017100006202668009101F09FFB06EBC0360620EC
:1017200001F09AFB301AC61326603E4E052033683E
:10173000019301F091FB019B03EB80430520019392
:1017400001F08AFB019B0099181A8014C9B230601D
:1017500001F05AFC5FFA88F10646206801F054FC5B
:10176000BBF1010F0CBF431173110AFB0392044636
:1017700082F310022C48062102F0A2FA21464420EE
:1017800000F036FD4520314600F032FDBB1E012B36
:101790007FD9032000F016FD0446062000F012FD5C
:1017A0000646422000F00EFDB0F100093EDB4FEA94
:1017B000490AB9F5C86F56444CDB042000F002FD1D
:1017C0008346022000F0FEFC80463D2000F0FAFC3B
:1017D0008146012000F0F6FC8145C6BF08EB0902F6
:1017E000A2EB4002C9EB080252005201C4EB0B010C
:1017F00092FBF0F3AAF5486A4B430AFB01F10BEBAD
:10180000631B4911642391FBF3F10C44A345B8BF5A
:101810005C461FE0600100204C0300203C030020D8
:101820006C01002080010020000800401B2000F017
:10183000C9FC824601F076F95045C9F10006C4F1B1
:10184000000407D201F06EF94001B0FBFAFA06FB82
:101850000AF676092D2000F0B5FCC000B6F5486FF9
:10186000D4BF861900F548662D2000F0ABFC311A74
:10187000C9102D2000F0BCFC2B2000F0A3FC04EBD1
:10188000C0042B2000F09EFC211AC9102B2000F070
:10189000AFFC1C2000F096FC85420CDB422000F0DF
:1018A00097FC002807DC062000F0FCFE18B10B2096
:1018B00000F0F8FE00BB1D4C7FB9322339463F20B3
:1018C000236000F08DFC00F071FB384600F006FF4D
:1018D000174A4FF0FF33136025E02368002B07D130
:1018E000FFF730FE012000F0F9FE4FF0FF3301E07A
:1018F00019DD013B236016E0082000F0D3FE00282C
:10190000D9D0002000F0E0FE012000F0E7FE032027
:1019100000F0E4FE01212E2000F062FCCBE7632EF4
:101920007FF7D0AEDBE605B0BDE8F08F5C010020AC
:101930004C03002008B50648802101F095FF2E20B9
:10194000002100F04DFCBDE80840012000F0BCBEC5
:10195000002C01402DE9F74F674802F027FA0646B0
:101960002E2000F035FC654B1A6822F001021A6047
:10197000431E012B00F28480432000F029FC604BC1
:101980000746D3F800805F4B05201D7800F020FC4F
:101990001FFA80FA2D2000F01BFC83462B2000F05C
:1019A00011FC0446092000F00DFC814601F04AF8C4
:1019B00001F098F8019001F0B5F800FB0A404845A5
:1019C000C8BF0024C5EB080504FA08F84E4A019B7D
:1019D00012884E4C98FBF2F84D4A20EAE0791188C3
:1019E000484601EB68181FFA88F803FB0A8A594633
:1019F000A2F80080A4F800A000F06EFF804600F07E
:101A000093FE41463F2000F0EBFB49463D2000F0AD
:101A1000EFFB20883F4C00F0A3FE2368EDB2EB40C3
:101A2000236063683F20EB406360A36823FA05F5F9
:101A3000A56000F0CDFB10B9A060606020602E486A
:101A40000021226802F03CF9002F324D2A484FF065
:101A5000020106D12A6802F033F9274804212A68D6
:101A60003AE006DD6A6802F02BF923480421AA68EF
:101A700032E0AA6802F024F91F4804216A682BE0CA
:101A800003282BD12D2000F0A3FB1E4B00211C7836
:101A900000FA04F4184802F0B1F81748012102F0E6
:101AA000ADF81548022102F0A9F81348042102F00C
:101AB000A5F81148052102F0A1F800210A460E48B8
:101AC00002F0FEF864220C480221B4FBF2F202F0AC
:101AD000F7F809480421002202F0F2F8064802F063
:101AE00065F9B6B2811B48234F20B1FBF3F103B077
:101AF000BDE8F04F00F074BB002C0140102C0140F9
:101B0000844D00087E0100207C0100206A01002035
:101B1000680100203002002038B5FFF719FB0720CC
:101B200000F056FBC0B201F037F80D2000F050FB7A
:101B300080B201F023F8012000F044FB00F00EFF1A
:101B4000002000F045FB00F003FF082000F03AFB06
:101B500000F0E2FE212000F03BFB00F0EBFD0E2048
:101B600000F036FB164D174C28600F2000F030FBBC
:101B70002060102000F02CFB6860112000F028FB92
:101B80006060192000F024FB0F4B1860182000F053
:101B90001FFB0E4B18601A2000F01AFB0C4B18604C
:101BA000122000F015FB0B4B1860132000F00AFB0D
:101BB000094B1860142000F00BFB084B186038BD6F
:101BC000240300202C0300204803002038030020B9
:101BD000400300203C030020440300203403002085
:101BE00008B500F03BF800F02FFD00F089F800F098
:101BF000B3F8FFF7A7FC00F09DFA01F065F900F0DB
:101C0000B9FE01F0A1FA5020FFF786FF0E4B1888AD
:101C100000F0AAFE00210A4664230C4800F03AFABC
:101C2000002101220A230A4800F034FA002102228E
:101C30000123084800F02EFA032000F045FD064875
:101C400000F006FB002008BD804D0008DD130008F1
:101C50007D150008B91100080048004038B501F0B2
:101C6000A9FD042001F092FD0320214C01F07AFD32
:101C7000204B214A20461A60042102F0F7F8204642
:101C8000082102F0F3F82046102102F0EFF8204678
:101C9000202102F0EBF8194D2046402102F0E6F831
:101CA00020464FF4807102F0E1F828464FF480217D
:101CB00002F0DCF820464FF4006102F0D7F8284625
:101CC000022102F0D3F828460421083D02F0CEF8A4
:101CD0002846012102F0CAF820464FF4007102F0B4
:101CE000C5F828464021BDE8384002F0BFB800BF23
:101CF000181002400CED00E00003FA051C10024031
:101D000010B5134C02224FF480631248032101F0F6
:101D100065FC20464FF4E13102F04AF820460821E4
:101D200002F05AF820464FF4005102F05EF82046C7
:101D30000C2102F066F82046002102F05CF82046F3
:101D4000002102F064F82046BDE8104002F065B8BA
:101D500000480040000C014008B5192002F00AF9C3
:101D60000021192002F014F9182002F003F9BDE84F
:101D700008401820002102F00BB9000010B50D4CEE
:101D80000021204601F006FF2046022101F002FF5B
:101D90002046042101F0FEFE2046012101F0FAFE5A
:101DA0002046032101F0F6FE20460521BDE8104043
:101DB00001F0F0BE002C014070B50124844075484C
:101DC00015460E4601F07EFD7248202101F061FDAE
:101DD000704801F059FD704B46F668021A6068229F
:101DE0005A606C485DB1002101F0A0FE69480221F3
:101DF00001F09CFE6748042101F098FE0AE02946A4
:101E000001F060FE6348022101F05CFE614804219C
:101E100001F058FEFFF7B2FF5E4801F06FFF5D482A
:101E200001F05EFF5B4801F077FF5A4801F082FF46
:101E3000584801F08DFF574801F098FF314655484A
:101E400001F0A2FF5348002101F00CFF514802218C
:101E500001F008FF4F48042101F004FF4D48012123
:101E600001F000FF4B48032101F0FCFE4948052129
:101E700001F0F8FE4748012101F094FF4548802118
:101E800001F0FDFC4348012101F0EAFC41488021BA
:101E900001F0E6FCA4B23F48002101F01DFD2146FF
:101EA0003C4801F027FD3B48012101F017FD0021CE
:101EB0000A46384801F004FF36480221002201F0AA
:101EC000FFFE00220421334801F0FAFE314801F000
:101ED000F4FC324801F0F6FC0021304801F0D9FC56
:101EE0002E4801F0D1FC2D480221062201F004FD0C
:101EF0002A480421062201F0FFFC06210A46274851
:101F000001F0FAFC2548022101F0C2FD234804211A
:101F100001F0BEFD2148062101F0BAFD1F48022153
:101F200001F0D0FD1D48042101F0CCFD1B48062125
:101F300001F0C8FD1948022101F02CFE17480421C8
:101F400001F028FE1548062101F024FE1348012166
:101F500001F028FF1148002101F0BEFC4FF4805130
:101F60000E4801F0C7FC0D4801F0A7FC0C48032106
:101F700002224FF4E06301F031FB0A480321022200
:101F80004EF2803301F02AFB074BB3FBF4F080B232
:101F900070BD00BF002C0140182C0140000800401B
:101FA00000080140000C01400051250210B50D4C05
:101FB0000021204601F022FE2046022101F01EFEF3
:101FC0002046042101F01AFE2046012101F016FEF0
:101FD0002046032101F012FE20460521BDE81040F5
:101FE00001F00CBE002C01407047000008B5224BE8
:101FF0001A6892070CD51A6822F002021A601F4B69
:102000001B6898471E4B1F491A6809880A441A60C2
:10201000194B1A6850070CD51A6822F004021A608E
:10202000164B5B689847184B16491A6849880A444A
:102030001A60114B1A6811070CD51A6822F00802B1
:102040001A600E4B9B689847104B0E491A68898896
:102050000A441A60084B1A68D2060CD51A6822F096
:1020600010021A60054BDB689847094B05491A684E
:10207000C9880A441A6008BD100000408C01002085
:10208000340000409C010020380000403C0000402B
:1020900040000040F0B5002935D1032A33D8DFE8ED
:1020A00002F0020D05081026184D0AE01026184D02
:1020B00002E0184D4FF48056174903E0174D4FF4D6
:1020C000805617494FF08044276827F001072760A2
:1020D0000F683E430E602B6002259540114903EBCB
:1020E00083030E689B0035430D600F4941F82200C1
:1020F0000E49002021F812300D4B1860236843F080
:1021000001032360F0BD4FF0FF30F0BD340000400C
:102110003C000040400000401C00004038000040EF
:10212000180000400C0000408C0100209C010020A1
:102130002400004008B50121104801F097FE1C2042
:1021400001F018FF1C20F02101F022FF4FF0804326
:1021500080221A604FF461629A62094A4FF6FF7357
:1021600013600848084A09490380116043805160A0
:1021700083809160C380D16008BD00BF1C10024005
:102180002C0000409C0100208C010020E91F000869
:102190000A4A10B5182404FB002202F108049268D0
:1021A000914209DB6268914206DC054A42F8201040
:1021B000FFF7B2FC002010BDFF2010BDB03F0008AB
:1021C00000000020014B53F8200070470000002061
:1021D000024B53F820004011704700BF0000002060
:1021E000024B490143F820100020704700000020F6
:1021F000024B43F820100020704700BF0000002071
:1022000070B50646002418226243064B3146D0586A
:10221000E5B200F0B3F918B10134502CF3D15125D7
:10222000284670BDB03F0008024B182202FB003068
:10223000704700BFB03F0008044B182202FB003378
:102240009868DB68C01A18BF01207047B03F0008CB
:102250002DE9F84F2C4B0026814618603546B246D2
:1022600037463446484601F0E8FD5FFA80F84146BB
:10227000484601F0D7FDB8F10A0F04D0B8F10D0FB0
:1022800001D07E2C15DD45B16B6838462E46002501
:10229000BA4698472F462C46E4E7002CE2D01B4C68
:1022A00014F8011F19B1484601F0BCFDF8E70C46CF
:1022B000D8E7B8F1210F4FF0000B06D1002ED0D097
:1022C0007368504698475C46CCE7114B03F804808E
:1022D000013403F804B09B46002FC3D1DFF83480EB
:1022E00058F8081CA8F1080531B1094800F046F972
:1022F00008F108080028F3D12A6812B10BEB040793
:10230000B0E71546AEE700BFA4010020784A0008F8
:10231000A80100209C4A000808B5034B81B2186848
:1023200001F080FD002008BDA4010020704708B521
:1023300001F018FE10B5084800F06EFD0024E0B270
:10234000FFF772FF034693E806000448013400F0EB
:1023500063FD502CF3D110BDFC4A00081E4B000851
:1023600070B50024E5B22846FFF75EFF06682846F0
:10237000FFF728FF013402463146034800F04CFDC8
:10238000502CEFD170BD00BF284B00082DE9F7435A
:10239000184800F041FD00252027EEB23046FFF737
:1023A00043FFD0F80090D0F8048004463046FFF791
:1023B00009FF394600904A460F48434600F02CFD7D
:1023C0003046FFF739FF30B104F108010EC90B4860
:1023D00000F022FD02E00A4800F01EFD0135502DFC
:1023E00001D02C27D9E7074803B0BDE8F04300F03F
:1023F00013BD00BF314B0008334B0008634B00088E
:10240000904B0008974B000873B50E4800F004FD90
:102410000D4800F001FD0024E6B23046FFF704FF4E
:1024200005463046FFF708FF38B12B69074800938F
:102430002968AA68EB6800F0EFFC0134502CEBD15E
:1024400002B070BD9D4B0008B44B0008D04B000893
:1024500008B500F01BFEBDE808400146014800F049
:10246000DBBC00BFE34B000808B500F0D2F800F079
:10247000F4F96028014604DC2E20FFF7B9FE03487A
:1024800000E00348BDE8084000F0C6BCFF4B000870
:10249000124C000808B52E200021FFF7A1FEBDE870
:1024A0000840014800F0B8BC284C000870B500F0A6
:1024B000B0F8044620462C2100F077F80023067877
:1024C000054603702046FFF79BFE2C46512804F872
:1024D000016B06D0FFF776FE0146054800F09CFC34
:1024E00002E0044800F098FC2B782C2BE2D070BD61
:1024F0002C4B00083B4C000838B500F08AF820212E
:10250000044600F052F803780BB90F480FE000239F
:1025100000F8013B00F0A1F905462046FFF770FEE8
:1025200051280AD02946FFF733FE20B90748BDE8F5
:10253000384000F071BC0648F9E721460548BDE87F
:10254000384000F069BC00BF4F4C00086A4C0008DE
:10255000734C0008884C000808B500F0F5FD18B968
:10256000FFF7DAFA034800E00348BDE8084000F04E
:1025700053BC00BF9F4C0008B34C000810B5013895
:1025800010F8013F0C4623B111F8012B0AB1934218
:10259000F6D02078C01A18BF012010BD0023C25CFD
:1025A0000AB10133FBE7184670470346184613F893
:1025B000012B0AB18A42F9D170470029F0B50346D0
:1025C00005DA2D2003F8010B4942012601E002D073
:1025D00000261C4604E03022027041700120F0BD4C
:1025E00091FBF2F502FB151130312746F01A04F881
:1025F000011B291E2044F3DC002222703A469A4235
:1026000006D91978147803F8014B02F80119F6E796
:10261000F0BD10B503780446202B00F10100F9D07D
:102620007BB12046FFF7BAFF01382044A0420346A1
:1026300002D800225A7004E01A780138202AF5D016
:10264000F7E7204610BD000038B5124C14F8023CE4
:10265000052B1DD0013BDBB2032B06D80E4A0F48D9
:10266000D15C0F4AC55CD25C02E0002502222946FB
:1026700054F8080C34F8043C00F0B0FF012D05D1EB
:1026800054F8080C34F8041C01F0DAF80834DDE7DB
:1026900038BD00BFFC4C0008744D00087C4D00089C
:1026A000784D0008074B10B503EBC004A18853F820
:1026B000300001F0CAF8A38818420CBF00200120A6
:1026C00010BD00BFF44C0008034B03EBC00291881F
:1026D00053F8300001F0B4B8F44C0008034B03EB9E
:1026E000C002918853F8300001F0ACB8F44C0008F7
:1026F000034B03EBC002918853F8300001F0A8B8F7
:10270000F44C0008024B400933F91000704700BF39
:10271000884D0008034BC0F58040C0F34A1033F9E0
:1027200010007047884D0008014B1860704700BFCB
:102730003C020020014B1860704700BF2C020020B3
:102740009142B4BF0B4613469142A8BF0A4682424B
:10275000B8BF02468342D4BFD0181018401070474B
:102760007FB5204B421133F9122003A9019200F5E5
:10277000AA42A0F5AA4055325638C0F34A10C2F317
:102780004A1233F9122033F9103002920393164B98
:1027900018886B465A684243D21343F8042F8B4281
:1027A000F8D101A807C8FFF7CBFF104B1D88104BCD
:1027B0001C680023C4F5803601AA9958091A99505B
:1027C00029440C4AA142995001D2002103E0B142B0
:1027D00002D94FF48031995004330C2BECD104B062
:1027E00070BD00BF884D00083C0200202802002078
:1027F0002C02002030020020024B4FF400421A80CD
:10280000704700BF280200200029ACBF01234FF011
:10281000FF3370B501FB03F60133044604BF2D23DB
:1028200004F8013B7111642206F01F065643054669
:102830000A222046FFF7C1FE761123182E22092E08
:10284000225403F1010002D830225A70981C3146FC
:102850000A22FFF7B2FE284670BD70B50378002249
:102860002D2B06BF01304FF0FF340124054610F830
:10287000013BA3F13001CEB2092E03D80A2303FB9A
:102880000212F3E773B10A21002315F8010F303863
:10289000C6B2092E06D8400190FBF1F003440A208D
:1028A0004143F2E703EB4210604370BDB0F57A7F1D
:1028B0002CBF0823042320FA03F34201202B38BF46
:1028C0002023B2FBF3F0184440081B1A012B01D956
:1028D0000346F6E77047000010B50B4C0B4B24681D
:1028E0001A680B4BA0421B6807D3504303EB9020A0
:1028F00048436423B0FBF3F000E00020054B1B6865
:10290000984228BF184610BD440200204002002013
:102910004C02002048020020014B1860704700BFA5
:1029200044020020064B1A68064B1B68D21A064B5D
:1029300092021B68B2FBF3F2044B1A60704700BFAF
:10294000480200204C0200204001002040020020EC
:10295000014B1860FFF7E6BF4C020020014B1860E6
:10296000FFF7E0BF40010020014B1860FFF7DABF1E
:102970004802002010B52C4C2C48022101F076FAB8
:102980002046472100F0A8FF4FF6FF71204600F0D7
:10299000B1FF204600F08CFF204600F084FF244B5E
:1029A00048F674721A60E1225A619A694FF4006124
:1029B00042F440729A61204600F052FF204600F037
:1029C00086FF2046012101F0EDF9204600F075FF59
:1029D000184B194A1A60194A5A600A2243F8042C03
:1029E00053F8082C42F4806243F8082C53F8082C62
:1029F00042F4807243F8082C53F8082C42F080020D
:102A000043F8082C53F8082C42F0200243F8082C15
:102A100053F8082C42F0010243F8082C084B4FF6FB
:102A2000FF721A6010BD00BF000400401C1002407D
:102A300008040040240002403C0400405A020020E8
:102A400054020020F8B51E4B1E4F1D683C88ADB2E5
:102A5000A54288BF0A34641B002C11DD1A4E0023E6
:102A60001A480121337000F004FF48B117480821CB
:102A700000F005FF1548012100F001FF012333702C
:102A8000134A144910680B68B0EB930F0ED30E482D
:102A9000007838B91068104AC01A1288934003446D
:102AA000D34001E04FF6FF730B6000E000240B4BB6
:102AB0000B4A3D8011681A8804FB01241C80F8BD74
:102AC0002000024046010020440100200004004094
:102AD0003C040040540200206E02002058020020F6
:102AE0007002002008B50A4801F060F9094B1B7814
:102AF00043B9094B1B685843084B1B68B0FBF3F004
:102B000080B200E00020064B1B88184480B208BD4C
:102B10000004004044010020700200205402002004
:102B200058020020064B1B7843B9064A064B106832
:102B30001B885843054BB3FBF0F0704700207047EB
:102B40004401002054020020500200200048E80107
:102B5000064B1B7843B9064A064B10681B8858433E
:102B6000054BB3FBF0F07047002070474401002094
:102B7000540200205002002000879303044B188069
:102B80004FF4803393FBF0F0024B1860704700BFA6
:102B90005002002070020020014B1880704700BFD7
:102BA0006E02002028B102681170026801320260D2
:102BB00070470846FFF7B0BB2DE9F843141E804666
:102BC000894610DD002219F8021009B10132FAE736
:102BD000A242B4BFC2EB04040C4613F0020F14BFB0
:102BE0003027202700E02027DB070CD42546002DC6
:102BF00005DD40463946FFF7D5FF013DF7E724EAFA
:102C0000E476A41B00E000263546C6EB0903595DB7
:102C100021B14046FFF7C6FF0135F6E72646002EF4
:102C200005DD40463946FFF7BDFF013EF7E7002CC2
:102C3000ACBF2819281CBDE8F8832DE9FF470C9E7E
:102C40008146DDF834800C4651B930238DF80430CC
:102C50008DF80510324601A94346FFF7ADFF36E077
:102C600033B10A2A04D1002902DA4C42012700E0DC
:102C7000002704AD002305F8013DAA4674B1B4FB5A
:102C8000F2F302FB1344092C03DD0E98A0F13A0184
:102C90000C44303405F8014D1C46EEE787B14EB1C7
:102CA00018F0020F06D048462D21FFF77BFF013EAA
:102CB000012705E02D2305F1FF3A05F8013C002727
:102CC0004846514632464346FFF776FF384404B043
:102CD000BDE8F087F0B58BB006460D46059200249E
:102CE0002B782BB1252B40F08A806A786B1C32B987
:102CF000002E00F08B80336800221A7086E0252AAF
:102D00007CD02D2A06BFAB1C01270027184602786D
:102D10000133302A02D147F00207F7E70022037897
:102D20000546A3F130015FFA81FCBCF1090F00F107
:102D3000010003D80A2303FB0212F0E7732B09D129
:102D4000059B3046191D05911968324B002908BFB3
:102D500019464FE0642B0ED1059B8DE8840061225B
:102D6000191D02920591304619680A220123FFF7C6
:102D700064FF044448E0782B06D1059B8DE884006D
:102D8000191D0591612207E0582B0AD1059B8DE89A
:102D90008400191D059141220292304619681022C3
:102DA0000BE0752B0BD1059B8DE884006122191D6A
:102DB00002920591196830460A220023D7E7662B54
:102DC0000BD1059B07A8191D059119680492FFF7FF
:102DD0001BFD304607A9049A0CE0632B14D1059B18
:102DE0003046191D1B6805918DF8183000238DF8A9
:102DF000193006A93B46FFF7DFFEBAE71D4630460D
:102E00002978FFF7CFFE0134013569E720460BB082
:102E1000F0BD00BF885D00080FB407B504AA52F8E2
:102E2000041B00200192FFF755FF03B05DF804EB8F
:102E300004B07047884205DD91420ADC9042A8BF89
:102E400010467047904205DC9142B4BF08461046D8
:102E5000704708467047000037B50F4C002504EB5B
:102E600040042088E189A28BFFF7E4FF2DF80500DC
:102E70000235082D04F12A04F3D1BDF80230BDF863
:102E800000001844BDF804301844BDF8063018445A
:102E9000C0F38F0003B030BD74020020012806D0BB
:102EA000022809D070B907290CDCC8B27047012983
:102EB00008DC01F1080003E0052903DC01F10A0048
:102EC000C0B2704710207047F0B5464887B000F098
:102ED000A2FA444800F0A4FA424800F0ABFA414894
:102EE00000F0A3FA3F48012100F080FA3D4800F0CD
:102EF00059FA00230193019A3B4B9A4202DC019B51
:102F00000133F7E7374800F05DFA364800F064FA1D
:102F1000364C002614F8022CF5B2032A344F28D080
:102F2000012A14F8013C0CD006D3022A11D1012247
:102F300002FA03F32F4807E0012202FA03F32E48B6
:102F400002E002FA03F32D4800210A469BB200F08A
:102F500045FB14F8020C14F8011CFFF79FFF06ABA9
:102F60002B4403F8100C002327F8153001360234E7
:102F7000D0E7294602AA1B4800F061FA194800F080
:102F8000A8FA1F4B1F4A17481A605F600C235D4365
:102F900003F1804303F500331D6053F8042C42F421
:102FA000806243F8042C53F8042C42F4807243F8F6
:102FB000042C53F8042C42F0800243F8042C53F8FC
:102FC000042C42F0200243F8042C53F8042C42F065
:102FD000010243F8042C00F072FA024800F0EAF90A
:102FE00007B0F0BD002401407F380100915D00086A
:102FF000740200200010014000080140000C014054
:10300000100002404C24014003292DE9F04124D84E
:103010001D4F09017C18D4F80CC0A67ABCF800300A
:10302000012E4FF6FF7518BF01251D4494F8098045
:10303000ADB2002242450CD2012E3CF8123002D132
:10304000834203DB0CE00EB983420DDD01321D46E5
:10305000F0E760684001BDE8F0810020BDE8F08144
:10306000181A46015B1B02E0C01A4601EB1A247ACB
:10307000785876015B0196FBF3F304FB02025C4394
:10308000C4EB4210BDE8F081045E0008F0B52A4BA5
:10309000ADF2044D1A68002442F001021A60E5B254
:1030A0002846FFF7C9F8E600A8B12846FFF7BCF8A4
:1030B0004369074628464DF83430FFF783F800ABE4
:1030C0001E4470607B691D4E28463360FFF77AF816
:1030D00001343060E3E700AB33440DF58060083322
:1030E0008342164907D0002243F8082C43F8042CE9
:1030F0000A600A60F3E70B68114CFE9300F0C4FE0F
:10310000022000F0B7FE0E4800F02CFA00AB23447A
:1031100003F17843A3F5FE332046196800F0D4FE8E
:10312000084B04349C42F1D100F0C0FE034B1868F8
:103130000DF2044DF0BD00BF0830024000300240E7
:1031400000FC01080000020838B51C4B1A6842F068
:1031500001021A601A4B53F8041F1A4A11601A49E7
:103160008B42F8D1194B1268D3F8F8339A4221D127
:103170000024E5B22846FFF75FF8D0B12846FFF7F4
:1031800053F840690023D90001F1006202F5FE32D4
:103190001268824208D101F1006303F5FE3328462C
:1031A0005968FFF725F802E001337F2BEBD101349A
:1031B000DFE738BD4FF0FF3038BD00BF08300240B8
:1031C000FCFB010800300240F4FF010800FC01088C
:1031D000F8B51B4B0446104616460F461D68FFF710
:1031E00091FA45433046FFF795FA49F2CC335F43F5
:1031F00044F6E6116143FF1307EBE13101FB05F7EC
:1032000004FB00F6FF130F4B07EBE63749F6C44605
:1032100077431A686C434FEA820C41430CEBE73763
:10322000BA1A9210E4131A60C4EBE131064B4E4314
:103230001A68970007EBE636B21A92101A60F8BDCA
:10324000480100201C03002020030020014B1860CF
:10325000704700BF480100200D4A036852F8212042
:1032600010B503F1C804944206DB0A4C54F821104F
:1032700001F1C804A34202DD0260002010BD9342A8
:1032800001DA026002E08B42C8BF0160012010BD7C
:10329000240300202C030020F0B5184D184B6E6855
:1032A0001C68184BB1421B682F4612DD6425891B30
:1032B000DFF858C06943DCF804C0C6EB0C0691FB8C
:1032C000F6F67443734394FBF5F493FBF5F3013482
:1032D000013382B90C4B39681A68431A02F164054C
:1032E0000A486B430068411A93FBF1F39B1A44BFF1
:1032F000634393FBF2F31846F0BD00BF24030020A4
:103300004003002038030020480300202C03002045
:10331000064B1B68181A064B1B685843B0F5C86F5C
:10332000A8BF4FF4C8604011704700BF3C030020A5
:1033300044030020104A11491368096810B503FAC4
:1033400001F42044C31A43FA01F10D4B11601B68CC
:103350000C4A591A0C4B12681B6852424B435201DB
:10336000B3F5486FA8BF4FF448639342ACBF18460B
:103370001046401110BD00BF500300203403002050
:103380004C0300204003002044030020B0F52A6FC6
:1033900006DB40F6A1239842D4BF322000207047BC
:1033A000642070478368DB0703D4836843F001031C
:1033B000836070478368DB0703D5836843F00103AC
:1033C00083607047836800F1080243F0080383605C
:1033D00013681B07FCD47047836800F1080243F0B0
:1033E0000403836013685B07FCD4704710B50022A8
:1033F000134601FA02F403321E2A43EA0403F8D109
:103400000361002201FA02F40332182A43EA04039A
:10341000F8D1C36010BD836823F001038360704757
:10342000436843F4807343607047836823F4006308
:1034300083607047836843F00203836070471029FC
:103440002DE9F04339D800236FF03B041D461E469A
:103450001F465FFA83FC0CF101085FFA88F8884583
:1034600025D8B8F1060F07D812F8039003EB8308AC
:1034700009FA08F845EA0805ACF10608B8F1050FA5
:1034800007D812F8039004F11E0809FA08F846EA72
:103490000806ACF10C0CBCF1050F05D812F803C0FE
:1034A0000CFA04FC47EA0C0701330534D1E7013973
:1034B00047EA0157C76206634563BDE8F083836846
:1034C00000F1080243F48003836013685B02FCD4BC
:1034D0007047836843F4807383607047064B1868B5
:1034E000064B1B68B3F5007F82BF054B1B68184372
:1034F00000F03500704700BF0C200240E0F7FF1FCE
:103500004C20024038B504460D4600F0D7FC114B64
:103510001B68B3F5007F04D90F4B9C4201D90F4BB8
:1035200000E00F4B1A6842F001021A60258000F09B
:10353000C5FC084B1B68B3F5007F04D9064B9C42C1
:1035400001D9064B00E0064B1A6822F001021A600E
:1035500038BD00BFE0F7FF1FFFFF07085020024003
:103560001020024010B5044600F0A8FC154B1B6863
:10357000B3F5007F09D9144B9C4206D9134B1A6846
:1035800042F002021A60124A05E0124B1A6842F039
:1035900002021A60104A14601A6842F040021A606F
:1035A00000F08CFC074B1B68B3F5007F04D9064B79
:1035B0009C4201D9054B00E0064B1A6822F002023A
:1035C0001A6010BDE0F7FF1FFFFF07085020024000
:1035D0005420024010200240142002402DE9F04700
:1035E000066845684FF6E07C002443FA04F7FF07BD
:1035F00021D51FFA84F8B8F1070F04D84FEA8807DD
:10360000BFB2B14601E06746A9464FF00F0A0AFA79
:1036100007FA29EA0A0907F1020A02FA0AFA01FA84
:1036200007F74AEA070747EA0907B8F1070F98BF03
:103630003E4688BF3D4601340CF1040C102C1FFAA5
:103640008CFCD2D106604560BDE8F087024B1A6859
:1036500042F080721A60704700100240062827D896
:10366000DFE800F004090E13181D2200114B1B683F
:103670009901FBD570470F4B1B681A01FBD57047AA
:103680000C4B1B689B00FBD570470A4B1B689803CB
:10369000FBD57047074B1B689907FBD57047064B56
:1036A0001B689A07FBD57047044B1B689B07FBD52B
:1036B000704700BF0010024020100240241002405A
:1036C00006281FD8DFE800F004060B1015171900B4
:1036D000FFF7BCBF0C4B1A6842F0806211E00A4B46
:1036E0001A6842F080520CE0074B1A6842F48032AC
:1036F00007E0054B02E0054B00E0054B1A6842F07D
:1037000001021A60704700BF001002402010024002
:1037100024100240034B1A6822F003021043186081
:10372000704700BF04100240034B1A6822F4701265
:1037300042EA80401860704704100240034B1A6848
:1037400022F4803242EA00401860704704100240C0
:10375000034B1A6822F4003242EA40401860704776
:1037600004100240034B1A6822F4404242EA8030BF
:103770001860704704100240034B1A6822F460522C
:1037800042EAC0201860704704100240034B1A68D8
:1037900022F4E06242EA0020186070470410024000
:1037A000034B1A6822F0F00242EA001018607047DA
:1037B0000410024008B50420FFF782FF0420FFF741
:1037C0004DFF0020FFF7A6FF0320FFF779FF03203E
:1037D000FFF744FF0120FFF79DFF0020FFF7E0FF08
:1037E0000320FFF7BFFF0420FFF7D0FF0020FFF703
:1037F000C3FF022000F03EFB0720FFF795FF0120EA
:10380000FFF79CFF0020FFF7A3FFFFF71FFF00203B
:10381000FFF724FF0220FFF77DFF044B044A054910
:103820001360054A1160054A136008BD00A24A04EE
:103830004C010020005125025001002054010020BD
:103840000161704709040161704780680840704752
:10385000C36821EA03020B4042EA03430361704755
:10386000C3681943C1607047C36823EA0101C1609E
:10387000704703690B420CBF0020012070470369A9
:1038800023EA010101617047036843F0800303608C
:103890007047036801F0600123F060030360036870
:1038A0000B4303607047036823F010030360704705
:1038B000036843F0040303607047036843F00103A7
:1038C00003607047036823F0010303607047436897
:1038D00023F008034360704781627047044B9842AD
:1038E00003D003F50063984200D10163704700BF25
:1038F000002C0140C1627047062900F2C880DFE851
:1039000011F00700C6003600C6006800C600960029
:10391000836923F00303836183698361836923F0EF
:1039200070038361072A00F2B280DFE802F03304FB
:10393000080C1014181C836943F0100347E08369D6
:1039400043F0200343E0836943F030033FE08369A1
:1039500043F040033BE0836943F0500337E0836961
:1039600043F0600333E0836943F070032FE0836921
:1039700023F44073836183698361836923F4E043A3
:103980008361072A00F28380DFE802F004060A0E52
:1039900012161A1E83691AE0836943F4805316E0F5
:1039A000836943F4005312E0836943F440530EE00B
:1039B000836943F480430AE0836943F4A04306E04B
:1039C000836943F4C04302E0836943F4E0438361C5
:1039D0007047C36923F00303C361C369C361C3694B
:1039E00023F07003C361072A51D8DFE802F03204E4
:1039F000080C1014181CC36943F0100346E0C36997
:103A000043F0200342E0C36943F030033EE0C36962
:103A100043F040033AE0C36943F0500336E0C36922
:103A200043F0600332E0C36943F070032EE0C369E2
:103A300023F44073C361C369C361C36923F4E043E2
:103A4000C361072A23D8DFE802F004060A0E121623
:103A50001A1EC3691AE0C36943F4805316E0C369B0
:103A600043F4005312E0C36943F440530EE0C369CA
:103A700043F480430AE0C36943F4A04306E0C3690A
:103A800043F4C04302E0C36943F4E043C3617047B9
:103A9000062916D8DFE801F0041508150D151100E8
:103AA000836943F0080302E0836943F400638361A0
:103AB0007047C36943F0080302E0C36943F400633D
:103AC000C3617047062915D8DFE801F00414081413
:103AD0000C141000036A23F002030AE0036A23F0C7
:103AE000200306E0036A23F4007302E0036A23F470
:103AF000005303620C4B984203D003F500639842D5
:103B000011D1032907D0052909D001290BD1036A56
:103B100023F0080306E0036A23F0800302E0036A4F
:103B200023F4006303627047002C0140062915D876
:103B3000DFE801F0041408140C141000036A43F0C9
:103B400002030AE0036A43F0200306E0036A43F439
:103B5000007302E0036A43F4005303620C4B984283
:103B600003D003F50063984211D1032907D005293A
:103B700009D001290BD1036A43F0080306E0036A68
:103B800043F0800302E0036A43F40063036270477A
:103B9000002C0140062915D8DFE801F004140814B0
:103BA0000C141000036A43F001030AE0036A43F0B7
:103BB000100306E0036A43F4807302E0036A43F4EF
:103BC000805303620C4B984203D003F50063984284
:103BD00011D1032907D0052909D001290BD1036A86
:103BE00043F0040306E0036A43F0400302E0036A83
:103BF00043F4806303627047002C0140062915D806
:103C0000DFE801F0041408140C141000036A23F018
:103C100001030AE0036A23F0100306E0036A23F4B9
:103C2000807302E0036A23F4805303620C4B9842D2
:103C300003D003F50063984211D1032907D0052969
:103C400009D001290BD1036A23F0040306E0036ABB
:103C500023F0400302E0036A23F4806303627047A9
:103C6000002C0140154B984203D003F500639842A5
:103C700023D1062921D8DFE801F004080C1014181C
:103C80001C00436823F4807316E0436823F4007338
:103C900012E0436823F480630EE0436823F400637A
:103CA0000AE0436823F4805306E0436823F400539A
:103CB00002E0436823F4804343607047002C0140D6
:103CC00006290CD8DFE801F0040B060B080B0A00EC
:103CD0004263704782637047C263704702647047F3
:103CE000054B984203D003F50063984203D1436C1F
:103CF00043F4004343647047002C0140054B984255
:103D000003D003F50063984203D1436C23F480434E
:103D100043647047002C0140054B984203D003F5E3
:103D20000063984203D1436C43F4005343647047EB
:103D3000002C0140054B984203D003F500639842E4
:103D400003D1436C43F4805343647047002C01401B
:103D5000054B984203D003F50063984203D1436CAE
:103D600043F4006343647047002C0140054B9842C4
:103D700003D003F50063984203D1436C43F480639E
:103D800043647047002C0140054B984203D003F573
:103D90000063984202D1436C19434164704700BFED
:103DA000002C01404369194341617047406A7047E4
:103DB000064A074B90421B6804BF064B1B6801EB89
:103DC00043034900B3FBF1F38360704700380140BF
:103DD0005001002054010020C36808290CBF23F4BF
:103DE000805343F48053C3607047036923F4405306
:103DF000194301617047C36823F4C0631943C1606C
:103E00007047C36823F00C031943C16070474369CE
:103E100023F44073194341617047C36843F400536E
:103E2000C360704738B504460D4600F017F82046C9
:103E30002946BDE8384000F009B810B5044600F046
:103E400011F82046BDE8104000F004B8C1F30801A5
:103E5000416070474068C0F30800704703681B0664
:103E6000FCD5704703689B06FCD57047036819436F
:103E700001607047034B1A6822F007021043186074
:103E8000704700BF00200240064B1A6842F08002D3
:103E90001A60054A43F80C2C02F1883243F80C2CC6
:103EA000704700BF1020024023016745024B1A688B
:103EB00042F080021A6070471020024008B5FFF7F8
:103EC0000DFBC307FBD408BD38B505460C4689B2C7
:103ED000FFF718FBA81C210CBDE83840FFF712BB08
:103EE000FEE770470022154915485318834204D253
:103EF000144BD35853500432F5E7134A934203D27C
:103F000000221A600433F8E7104C114B9C4203D294
:103F100054F8043B9847F8E70E4C0F4B9C4203D2F1
:103F200054F8043B9847F8E7FDF75AFE0B4C0C4B4E
:103F30009C4203D254F8043B9847F8E70000002065
:103F400058010020BC5E000854030020B85E000841
:103F5000B85E0008B85E0008BC5E0008BC5E0008E1
:103F6000BC5E0008014A024B1A60FEE70400FA0535
:103F70000CED00E04309012200F01F0002FA00F0FE
:103F80009B0003F1604303F5614318607047000034
:103F9000432804D9054B00F00F00C154704700F1CD
:103FA000604000F564400170704700BF14ED00E010
:103FB000304700083647000800000000A0761200D5
:103FC00080D40000010000003A47000814490008AE
:103FD0000000000000320000600800000200000045
:103FE00040470008144900080000000000320000AB
:103FF000003200003C000000484700081449000857
:1040000000000000800C00002000000025000000DF
:10401000514700081449000800000000800C00000F
:1040200060000000210000005A4700083A4C0008D8
:1040300020000000000200004000000020000000FE
:10404000644700086B47000800000000800C000077
:1040500040060000040000006D4700083A4C0008CC
:1040600000000000000200008000000006000000C8
:1040700074470008144900080000000000320000E6
:1040800020000000220000007947000814490008C1
:1040900000000000003200000019000009000000CC
:1040A0007E470008854700080000000080000000EF
:1040B000400000000D000000B7470008BE470008A0
:1040C000000000002000000000000000340000009C
:1040D000D24700083647000800000000E01F00003B
:1040E000800300000E000000DB470008E2470008E4
:1040F0000001000000000400800700000F00000025
:10410000EA4700083647000800000000E0FF010011
:104110000000000011000000F147000836470008C9
:1041200000000000E0FF0100E0FF010012000000BD
:10413000F84700083647000800000000E0FF0100D3
:10414000E0FF01003F00000000480008364700087B
:1041500000000000E0FF0100E0FF0100400000005F
:10416000084800081248000880F3FFFF007D0000A7
:1041700080F3FFFF36000000164800083A4C0008A4
:1041800000000000800C0000080000003500000066
:104190001E4800083A4C0008000000000002000021
:1041A00020000000390000002748000832480008BD
:1041B0000000000020000000000000003E000000A1
:1041C000454800086B47000800000000800C000014
:1041D0004006000037000000504800086B47000808
:1041E00080F3FFFF00000000E0FFFFFF3800000049
:1041F0005A4800086B47000880F3FFFF00000000EA
:10420000C0F9FFFF26000000664800086B47000861
:1042100000000000800C0000C0030000130000003C
:104220006D4800086B47000800000000800C00008B
:10423000C003000031000000744800081449000861
:1042400000000000003200004001000027000000D4
:104250007F480008CD48000800000000007D0000F5
:10426000402900001400000085480008CD480008DF
:1042700000000000007D0000403800002A0000001F
:104280008C480008CD48000800000000007D0000B8
:10429000004100002B00000093480008CD480008B2
:1042A00000000000007D000080430000300000009E
:1042B0009A480008B74800080083FFFF007D00000F
:1042C00080F3FFFF16000000A248000836470008F0
:1042D00000000000E0FF0100007D00001800000069
:1042E000AB480008B348000880F3FFFF800C0000D3
:1042F0006AFFFFFF1B000000B9480008B348000830
:1043000080F3FFFF800C00006AFFFFFF1C0000002D
:10431000C1480008C948000800000000E0FF010093
:10432000C50000001D000000CF480008D748000865
:104330000000000040000000000000003A00000003
:10434000F0480008F84800082000E0FFE0FF1F00E8
:10435000800C000028000000FE48000836470008D6
:104360002000E0FFE0FF1F00000000002900000027
:10437000054900080F49000800000000E0FF1F0089
:1043800000EE02003B000000174900081D4900082C
:104390000000000020000000000000002D000000D0
:1043A0003249000837490008400000006000000062
:1043B000400000002E000000504900081449000889
:1043C00080F3FFFF800C00000000000000000000F0
:1043D0005A4900083A4C00080000000000000000A4
:1043E0005E00000000000000624900086B47000802
:1043F00000000000800C0000000000000000000031
:104400006949000870490008000000000000000031
:10441000000000000000000094490008CD4800089A
:10442000000000000000000000000000000000008C
:1044300098490008B748000800000000000000008C
:1044400000000000000000009C490008B748000878
:10445000000000000000000000000000000000005C
:10446000A0490008B7480008000000000000000054
:104470000000000000000000A4490008CD4800082A
:10448000000000000000000000000000000000002C
:10449000A8490008B748000800000000000000001C
:1044A0000000000000000000AF490008B748000805
:1044B00000000000000000000000000000000000FC
:1044C000B6490008B74800080000000000000000DE
:1044D0000000000000000000B9490008B7480008CB
:1044E00000000000000000000000000000000000CC
:1044F0001C480008BC490008000000000000000043
:104500000000000000000000BA490008BF49000890
:10451000000000000000000000000000000000009B
:10452000744A0008BF4900080000000000000000B5
:104530000000000000000000C34900083A4C0008D9
:10454000000000000000000000000000000000006B
:10455000CD490008C6490008000000000000000026
:104560000000000000000000C949000814490008CC
:10457000000000000000000000000000000000003B
:10458000EA4800081248000800000000000000008F
:104590000000000000000000CF4900083647000876
:1045A000000000000000000000000000000000000B
:1045B000D349000836470008000000000000000052
:1045C0000000000000000000D7490008364700083E
:1045D00000000000000000000000000000000000DB
:1045E000DC4900086B4700080000000000000000E4
:1045F0000000000000000000E3490008E74900084F
:1046000000000000000000000000000000000000AA
:10461000004A0008064A00080000000000000000F0
:1046200000000000000000000A4A0008064A0008D6
:10463000000000000000000000000000000000007A
:104640000F4A00083A4C000800000000000000007B
:1046500000000000000000001A4A00083A4C000860
:10466000000000000000000000000000000000004A
:10467000244A00083A4C0008000000000000000036
:1046800000000000000000002E4A00083A4C00081C
:10469000000000000000000000000000000000001A
:1046A000384A00083A4C00080000000000000000F2
:1046B0000000000000000000444A00083A4C0008D6
:1046C00000000000000000000000000000000000EA
:1046D000504A00083A4C00080000000000000000AA
:1046E00000000000000000005D4A00083A4C00088D
:1046F00000000000000000000000000000000000BA
:10470000664A00083A4C0008000000000000000063
:1047100000000000000000006E4A0008764A000811
:104720000000000000000000000000000000000089
:10473000626F6F73740064696700667765616B0010
:104740006670636F6E73740066736C69706D696E0A
:104750000066736C69706D617800706F6C65706174
:1047600069727300616D706D696E002500656E631E
:10477000666C7400666D696E00666D6178007077B6
:104780006D66727100303D31372E366B487A2C20C1
:10479000313D382E386B487A2C20323D342E344B44
:1047A000487A2C20333D322E326B487A2C20343D0F
:1047B000312E316B487A0070776D706F6C00303D30
:1047C000414354484947482C20313D4143544C4FC4
:1047D00057006465616474696D65006E756D696D1F
:1047E0007000496D702F72657600706F746D696E20
:1047F00000706F746D617800706F74326D696E0057
:10480000706F74326D61780069646C657370656592
:10481000640072706D0073706565646B7000737016
:10482000656564666C74006372756973656D6F6449
:104830006500303D427574746F6E2C20313D5377A6
:104840006974636800626D736C696D68696768009C
:10485000626D736C696D6C6F770062726B6E6F6DF9
:10486000706564616C0062726B6E6F6D0062726B7A
:104870006D61780062726B72616D70737472007535
:1048800064637377007564636D696E007564636D4E
:104890006178007564636C696D006F6375726C6933
:1048A0006D006D696E70756C736500696C31676160
:1048B000696E006469672F4100696C326761696ED7
:1048C000007564636761696E006469672F560070E4
:1048D000776D66756E6300303D746D706D2C2031A0
:1048E0003D746D7068732C20323D73706565640093
:1048F00070776D6761696E006469672F4300707738
:104900006D6F66730073706565646761696E0072D0
:10491000706D2F6B487A00736E73687300303D4A78
:1049200043757276652C20313D53656D696B726FEE
:104930006E00736E736D00323D4B545938332D3118
:1049400031302C20333D4B545938342D3133300025
:1049500066736C697073706E740076657273696FDC
:104960006E00616D706E6F6D006F706D6F646500CD
:10497000303D4F46462C20313D52554E2C20323D85
:104980004D414E55414C5F52554E2C20333D424FC8
:104990004F5354007564630069646300696C3100AF
:1049A000696C320075616300696C31726D73006906
:1049B0006C32726D73006964006971006B57006B33
:1049C0005641007066004E6D00667374617400613C
:1049D0006D7000706F7400706F743200706F746E61
:1049E0006F6D00646972002D313D5245562C2030A8
:1049F0003D4E45555452414C2C20313D46574400C4
:104A0000746D70687300C2B04300746D706D0064A3
:104A1000696E5F6372756973650064696E5F737454
:104A20006172740064696E5F6272616B65006469D3
:104A30006E5F6D70726F740064696E5F666F72771F
:104A40006172640064696E5F726576657273650099
:104A500064696E5F656D637973746F700064696E0D
:104A60005F6F6375720064696E5F626D7300746D71
:104A70005F6D65617300757300556E6B6E6F776E59
:104A800020636F6D6D616E642073657175656E6313
:104A9000650D0A00F04C0008F9240008C94C000814
:104AA000AD240008CD4C000861230008D14C00085B
:104AB00035230008D64C000809240008584A00088D
:104AC000952400081E4A000869240008DA4C0008F2
:104AD00051240008DF4C000859250008E44C000868
:104AE0002D230008E94C00088D230008EE4C000837
:104AF0002F230008000000000000000041766169DB
:104B00006C61626C6520706172616D657465727351
:104B100020616E642076616C7565730D0A002573E3
:104B2000205B25735D0D0A002573090925660D0AB2
:104B3000007B0025630D0A202020222573223A20C5
:104B40007B22756E6974223A222573222C227661AB
:104B50006C7565223A25662C226973706172616DED
:104B6000223A00747275652C226D696E696D756DDF
:104B7000223A25662C226D6178696D756D223A2581
:104B8000662C2264656661756C74223A25667D0028
:104B900066616C73657D000D0A7D0D0A00506172BF
:104BA000616D657465722061747472696275746593
:104BB000730D0A004E616D6509096D696E202D2027
:104BC0006D6178205B64656661756C745D0D0A00CB
:104BD000257309092566202D202566205B25665D45
:104BE0000D0A00506172616D657465727320737493
:104BF0006F7265642C204352433D25780D0A0049AD
:104C00006E76657274657220737461727465640D7A
:104C10000A00496E76616C696420696E766572740B
:104C20006572206D6F646500496E76657274657299
:104C30002068616C7465642E0D0A00556E6B6E6F92
:104C4000776E20706172616D657465720D0A004E39
:104C50006F20706172616D657465722076616C752C
:104C60006520676976656E0D0A00536574204F4BA9
:104C70000D0A0056616C7565206F7574206F662093
:104C800072616E67650D0A00556E6B6E6F776E20F0
:104C9000706172616D657465722025730D0A005034
:104CA0006172616D6574657273206C6F61646564B7
:104CB0000D0A00506172616D657465722043524344
:104CC000206572726F720D0A0067657400616C6C0A
:104CD000006C697374006174720073617665006CB6
:104CE0006F61640068656C70006A736F6E00726556
:104CF00073657400001001400020040000100140A2
:104D0000000404000010014000080400000C0140F1
:104D1000020004000010014000100400000C0140DB
:104D200020000000000C014040000000000801408D
:104D300004000000000801400800000000080140D5
:104D40001000000000100140400000000010014071
:104D500080000000000C0140001002000010014023
:104D600000010000001001400002040000000000EB
:104D70000000050000000003020100000100000027
:104D8000B59300001000000000006500C9002E016E
:104D90009201F7015B02C00224038903ED03520470
:104DA000B6041B057F05E3054806AC061107750729
:104DB000D9073E08A20806096A09CF09330A970AEB
:104DC000FB0A5F0BC40B280C8C0CF00C540DB80DB7
:104DD0001C0E800EE30E470FAB0F0F107210D61093
:104DE0003A119D1101126412C8122B138F13F21382
:104DF0005514B9141C157F15E2154516A8160B1786
:104E00006E17D01733189618F9185B19BE19201AA7
:104E1000821AE51A471BA91B0B1C6D1CCF1C311DE8
:104E2000931DF51D571EB81E1A1F7B1FDD1F3E2048
:104E30009F2000216121C22123228422E5224623D2
:104E4000A62307246724C82428258825E825482682
:104E5000A82608276727C72726288628E528442963
:104E6000A329022A612AC02A1F2B7D2BDC2B3A2C76
:104E7000992CF72C552DB32D112E6E2ECC2E2A2FBA
:104E8000872FE42F41309E30FB305831B53111323D
:104E90006E32CA3226338333DF333A349634F234F7
:104EA0004D35A83504365F36BA3615376F37CA37F1
:104EB00024387E38D93833398C39E639403A993A32
:104EC000F23A4C3BA53BFE3B563CAF3C073D603DB8
:104ED000B83D103E683EBF3E173F6E3FC53F1D4088
:104EE0007340CA4021417741CE4124427A42D042A8
:104EF00025437B43D04325447A44CF442445784519
:104F0000CD4521467546C9461C477047C3471648DC
:104F10006948BC480F496149B449064A584AA94AF8
:104F2000FB4A4C4B9D4BEE4B3F4C904CE04C314D73
:104F3000814DD14D204E704EBF4E0E4F5D4FAC4F48
:104F4000FB4F49509750E55033518151CE511B5280
:104F50006852B55202534E539B53E75332547E541A
:104F6000C95415556055AA55F5553F568A56D3561E
:104F70001D576757B057F95742588B58D3581C598B
:104F80006459AC59F3593B5A825AC95A0F5B565B64
:104F90009C5BE25B285C6E5CB35CF95C3E5D825DB1
:104FA000C75D0B5E4F5E935ED75E1A5F5D5FA05F6D
:104FB000E35F25606860AA60EB602D616E61AF61A0
:104FC000F06131627162B162F16231637063AF634B
:104FD000EE632D646C64AA64E86425656365A0656E
:104FE000DD651A6656669366CF660A67466781670F
:104FF000BC67F76732686C68A668E068196952692F
:105000008B69C469FD69356A6D6AA46ADC6A136BD1
:105010004A6B816BB76BED6B236C596C8E6CC36CF8
:10502000F86C2D6D616D956DC96DFD6D306E636EA3
:10503000966EC86EFB6E2C6F5E6F906FC16FF26FD5
:10504000227053708370B270E270117140716F7191
:105050009D71CB71F971277254728172AE72DB72DD
:10506000077333735E738A73B573E0730A743574B0
:105070005F748874B274DB7404752D7555757D7515
:10508000A575CC75F3751A76417667768D76B3760D
:10509000D876FE76227747776B778F77B377D77797
:1050A000FA771D783F7862788478A578C778E878B1
:1050B000097929794A796A798979A979C879E67962
:1050C000057A237A417A5F7A7C7A997AB67AD27AAB
:1050D000EE7A0A7B267B417B5C7B777B917BAB7B8B
:1050E000C57BDE7BF87B107C297C417C597C717C04
:1050F000887C9F7CB67CCD7CE37CF97C0E7D247D16
:10510000397D4D7D627D767D897D9D7DB07DC37DC0
:10511000D57DE87DFA7D0B7E1D7E2E7E3E7E4F7E08
:105120005F7E6F7E7E7E8D7E9C7EAB7EB97EC77EEF
:10513000D57EE27EEF7EFC7E097F157F217F2C7F6E
:10514000377F427F4D7F577F617F6B7F747F7D7F8D
:10515000867F8F7F977F9F7FA67FAD7FB47FBB7F4A
:10516000C17FC77FCD7FD27FD87FDC7FE17FE57FA6
:10517000E97FEC7FF07FF37FF57FF77FF97FFB7F9F
:10518000FD7FFE7FFE7FFF7FFF7FFF7FFE7FFE7F35
:10519000FD7FFB7FF97FF77FF57FF37FF07FEC7F6B
:1051A000E97FE57FE17FDC7FD87FD27FCD7FC77F3E
:1051B000C17FBB7FB47FAD7FA67F9F7F977F8F7FAF
:1051C000867F7D7F747F6B7F617F577F4D7F427FBE
:1051D000377F2C7F217F157F097FFC7EEF7EE27E6B
:1051E000D57EC77EB97EAB7E9C7E8D7E7E7E6F7EB9
:1051F0005F7E4F7E3E7E2E7E1D7E0B7EFA7DE87D9D
:10520000D57DC37DB07D9D7D897D767D627D4D7D23
:10521000397D247D0E7DF97CE37CCD7CB67C9F7C42
:10522000887C717C597C417C297C107CF87BDE7BFE
:10523000C57BAB7B917B777B5C7B417B267B0A7B51
:10524000EE7AD27AB67A997A7C7A5F7A417A237A40
:10525000057AE679C879A97989796A794A792979C3
:105260000979E878C778A578847862783F781D78DE
:10527000FA77D777B3778F776B7747772277FE7692
:10528000D876B3768D76677641761A76F375CC75D7
:10529000A5757D7555752D750475DB74B2748874AC
:1052A0005F7435740A74E073B5738A735E73337315
:1052B0000773DB72AE72817254722772F971CB710F
:1052C0009D716F7140711171E270B2708370537093
:1052D0002270F26FC16F906F5E6F2C6FFB6EC86EA5
:1052E000966E636E306EFD6DC96D956D616D2D6D41
:1052F000F86CC36C8E6C596C236CED6BB76B816B67
:105300004A6B136BDC6AA46A6D6A356AFD69C4690D
:105310008B6952691969E068A6686C683268F7673A
:10532000BC67816746670A67CF66936656661A66EA
:10533000DD65A06563652565E864AA646C642D6419
:10534000EE63AF6370633163F162B16271623162C7
:10535000F061AF616E612D61EB60AA6068602560ED
:10536000E35FA05F5D5F1A5FD75E935E4F5E0B5E8B
:10537000C75D825D3E5DF95CB35C6E5C285CE25BA0
:105380009C5B565B0F5BC95A825A3B5AF359AC5926
:1053900064591C59D3588B584258F957B05767571E
:1053A0001D57D3568A563F56F555AA556055155583
:1053B000C9547E543254E7539B534E530253B55253
:1053C00068521B52CE5181513351E550975049508C
:1053D000FB4FAC4F5D4F0E4FBF4E704E204ED14D28
:1053E000814D314DE04C904C3F4CEE4B9D4B4C4B26
:1053F000FB4AA94A584A064AB44961490F49BC4880
:1054000069481648C34770471C47C9467546214638
:10541000CD4578452445CF447A442544D0437B4349
:105420002543D0427A422442CE4177412141CA40AD
:1054300073401D40C53F6E3F173FBF3E683E103E64
:10544000B83D603D073DAF3C563CFE3BA53B4C3B69
:10545000F23A993A403AE6398C393339D9387E38BC
:105460002438CA376F371537BA365F360436A83551
:105470004D35F23496343A34DF3383332633CA322F
:105480006E321132B5315831FB309E304130E42F4D
:10549000872F2A2FCC2E6E2E112EB32D552DF72CA3
:1054A000992C3A2CDC2B7D2B1F2BC02A612A022A37
:1054B000A3294429E52886282628C72767270827FF
:1054C000A8264826E82588252825C82467240724F7
:1054D000A6234623E52284222322C2216121002122
:1054E0009F203E20DD1F7B1F1A1FB81E571EF51D73
:1054F000931D311DCF1C6D1C0B1CA91B471BE51AEE
:10550000821A201ABE195B19F91896183318D01789
:105510006E170B17A8164516E2157F151C15B91442
:105520005514F2138F132B13C812641201129D111C
:105530003A11D61072100F10AB0F470FE30E800E0A
:105540001C0EB80D540DF00C8C0C280CC40B5F0B0A
:10555000FB0A970A330ACF096A090609A2083E081E
:10556000D90775071107AC064806E3057F051B053B
:10557000B6045204ED0389032403C0025B02F70161
:1055800092012E01C900650000009BFF37FFD2FE8B
:105590006EFE09FEA5FD40FDDCFC77FC13FCAEFBB6
:1055A0004AFBE5FA81FA1DFAB8F954F9EFF88BF8DD
:1055B00027F8C2F75EF7FAF696F631F6CDF569F5FB
:1055C00005F5A1F43CF4D8F374F310F3ACF248F20F
:1055D000E4F180F11DF1B9F055F0F1EF8EEF2AEF13
:1055E000C6EE63EEFFED9CED38EDD5EC71EC0EEC04
:1055F000ABEB47EBE4EA81EA1EEABBE958E9F5E8E0
:1056000092E830E8CDE76AE707E7A5E642E6E0E59D
:105610007EE51BE5B9E457E4F5E393E331E3CFE23C
:105620006DE20BE2A9E148E1E6E085E023E0C2DFBC
:1056300061DF00DF9FDE3EDEDDDD7CDD1BDDBADC11
:105640005ADCF9DB99DB38DBD8DA78DA18DAB8D942
:1056500058D9F8D899D839D8DAD77AD71BD7BCD641
:105660005DD6FED59FD540D5E1D483D424D4C6D30E
:1056700067D309D3ABD24DD2EFD192D134D1D6D0AA
:1056800079D01CD0BFCF62CF05CFA8CE4BCEEFCD07
:1056900092CD36CDDACC7DCC21CCC6CB6ACB0ECB2D
:1056A000B3CA58CAFCC9A1C946C9EBC891C836C813
:1056B000DCC782C727C7CDC674C61AC6C0C567C5B2
:1056C0000EC5B4C45BC402C4AAC351C3F9C2A0C20C
:1056D00048C2F0C198C141C1E9C092C03BC0E3BF1C
:1056E0008DBF36BFDFBE89BE32BEDCBD86BD30BDDC
:1056F000DBBC85BC30BCDBBB86BB31BBDCBA88BA4B
:1057000033BADFB98BB937B9E4B890B83DB8EAB766
:1057100097B744B7F1B69FB64CB6FAB5A8B557B52A
:1057200005B5B4B463B412B4C1B370B320B3CFB28F
:105730007FB22FB2E0B190B141B1F2B0A3B054B09A
:1057400005B0B7AF69AF1BAFCDAE7FAE32AEE5AD42
:1057500098AD4BADFEACB2AC65AC19ACCEAB82AB88
:1057600037ABEBAAA0AA56AA0BAAC1A976A92DA964
:10577000E3A899A850A807A8BEA775A72DA7E4A6D7
:105780009CA654A60DA6C5A57EA537A5F1A4AAA4DE
:1057900064A41EA4D8A392A34DA307A3C2A27EA271
:1057A00039A2F5A1B1A16DA129A1E6A0A3A060A095
:1057B0001DA0DB9F989F569F159FD39E929E519E42
:1057C000109ECF9D8F9D4F9D0F9DCF9C909C519C77
:1057D000129CD39B949B569B189BDB9A9D9A609A34
:1057E000239AE699AA996D993199F698BA987F9873
:1057F00044980998CE9794975A972097E796AE9633
:1058000075963C960396CB9593955C952495ED946F
:10581000B6947F9449941394DD93A79372933D9328
:105820000893D3929F926B9237920392D0919D915D
:105830006A9138910591D490A29070903F900E900B
:10584000DE8FAD8F7D8F4E8F1E8FEF8EC08E918E2F
:10585000638E358E078ED98DAC8D7F8D528D258DC3
:10586000F98CCD8CA28C768C4B8C208CF68BCB8BD0
:10587000A18B788B4E8B258BFC8AD38AAB8A838A4B
:105880005B8A348A0D8AE689BF89998973894D8933
:1058900028890289DE88B988958871884D88298889
:1058A0000688E387C1879E877C875B87398718874F
:1058B000F786D786B68696867786578638861A867E
:1058C000FB85DD85BF85A185848567854A852E8515
:1058D0001285F684DA84BF84A48489846F84558415
:1058E0003B8422840884F083D783BF83A7838F837C
:1058F000788361834A8333831D830783F282DC824A
:10590000C782B3829E828A827782638250823D827E
:105910002B8218820682F581E381D281C281B18116
:10592000A18191818281738164815581478139810F
:105930002B811E8111810481F780EB80DF80D48070
:10594000C980BE80B380A9809F8095808C80838031
:105950007A807180698061805A8053804C80458054
:105960003F80398033802E80288024801F801B80D8
:105970001780148010800D800B80098007800580BF
:105980000380028002800180018001800280028009
:1059900003800580078009800B800D8010801480B3
:1059A00017801B801F80248028802E8033803980C0
:1059B0003F8045804C8053805A806180698071802F
:1059C0007A8083808C8095809F80A980B380BE8000
:1059D000C980D480DF80EB80F780048111811E8133
:1059E0002B813981478155816481738182819181C5
:1059F000A181B181C281D281E381F58106821882C1
:105A00002B823D825082638277828A829E82B38219
:105A1000C782DC82F28207831D8333834A836183DA
:105A200078838F83A783BF83D783F08308842284FE
:105A30003B8455846F848984A484BF84DA84F6848B
:105A400012852E854A8567858485A185BF85DD857C
:105A5000FB851A863886578677869686B686D786D9
:105A6000F786188739875B877C879E87C187E3879E
:105A7000068829884D8871889588B988DE880289CA
:105A800028894D8973899989BF89E6890D8A348A65
:105A90005B8A838AAB8AD38AFC8A258B4E8B788B70
:105AA000A18BCB8BF68B208C4B8C768CA28CCD8CE7
:105AB000F98C258D528D7F8DAC8DD98D078E358ECD
:105AC000638E918EC08EEF8E1E8F4E8F7D8FAD8F29
:105AD000DE8F0E903F907090A290D49005913891F7
:105AE0006A919D91D091039237926B929F92D3923B
:105AF00008933D937293A793DD93139449947F94F5
:105B0000B694ED9424955C959395CB9503963C962D
:105B10007596AE96E79620975A979497CE970998E0
:105B200044987F98BA98F69831996D99AA99E69910
:105B3000239A609A9D9ADB9A189B569B949BD39BC1
:105B4000129C519C909CCF9C0F9D4F9D8F9DCF9DF3
:105B5000109E519E929ED39E159F569F989FDB9FAD
:105B60001DA060A0A3A0E6A029A16DA1B1A1F5A1EF
:105B700039A27EA2C2A207A34DA392A3D8A31EA4BA
:105B800064A4AAA4F1A437A57EA5C5A50DA654A614
:105B90009CA6E4A62DA775A7BEA707A850A899A8FC
:105BA000E3A82DA976A9C1A90BAA56AAA0AAEBAA77
:105BB00037AB82ABCEAB19AC65ACB2ACFEAC4BAD87
:105BC00098ADE5AD32AE7FAECDAE1BAF69AFB7AF2E
:105BD00005B054B0A3B0F2B041B190B1E0B12FB272
:105BE0007FB2CFB220B370B3C1B312B463B4B4B454
:105BF00005B557B5A8B5FAB54CB69FB6F1B644B7DA
:105C000097B7EAB73DB890B8E4B837B98BB9DFB900
:105C100033BA88BADCBA31BB86BBDBBB30BC85BCCF
:105C2000DBBC30BD86BDDCBD32BE89BEDFBE36BF4B
:105C30008DBFE3BF3BC092C0E9C041C198C1F0C174
:105C400048C2A0C2F9C251C3AAC302C45BC4B4C44F
:105C50000EC567C5C0C51AC674C6CDC627C782C7DC
:105C6000DCC736C891C8EBC846C9A1C9FCC958CA27
:105C7000B3CA0ECB6ACBC6CB21CC7DCCDACC36CD29
:105C800092CDEFCD4BCEA8CE05CF62CFBFCF1CD0EB
:105C900079D0D6D034D192D1EFD14DD2ABD209D375
:105CA00067D3C6D324D483D4E1D440D59FD5FED5C1
:105CB0005DD6BCD61BD77AD7DAD739D899D8F8D8D9
:105CC00058D9B8D918DA78DAD8DA38DB99DBF9DBC1
:105CD0005ADCBADC1BDD7CDDDDDD3EDE9FDE00DF75
:105CE00061DFC2DF23E085E0E6E048E1A9E10BE205
:105CF0006DE2CFE231E393E3F5E357E4B9E41BE56A
:105D00007EE5E0E542E6A5E607E76AE7CDE730E8AD
:105D100092E8F5E858E9BBE91EEA81EAE4EA47EBD4
:105D2000ABEB0EEC71ECD5EC38ED9CEDFFED63EEDA
:105D3000C6EE2AEF8EEFF1EF55F0B9F01DF180F1CC
:105D4000E4F148F2ACF210F374F3D8F33CF4A1F4AC
:105D500005F569F5CDF531F696F6FAF65EF7C2F778
:105D600027F88BF8EFF854F9B8F91DFA81FAE5FA3B
:105D70004AFBAEFB13FC77FCDCFC40FDA5FD09FEF5
:105D80006EFED2FE37FF9BFF286E756C6C290002F9
:105D900001020000050006020302020204031000D3
:105DA000F307B0076D072B07E906A9066B062E0659
:105DB000F205B90581054C051805E704B8048A0405
:105DC0005F0435040D04E703C2039F037E03330021
:105DD00044005A0076009A00C600FC003F018E0184
:105DE000ED015B02DC026F031404CC0494056D0624
:105DF000530743083B09360A310B280C190D020ED4
:105E0000DF0EB10FE7FFFFFF6A000000051B010076
:105E1000CE5D0008000000006400000005150000D1
:105E20008C5E0008CEFFFFFFAA0000000A170000EA
:105E3000A05D0008D8FFFFFF2C0100000A2400002D
:105E4000445E0008EB08B70883084D081708E2070E
:105E5000AB079007740740070A07D606A30671062A
:105E600040061006E105B30586055C053105090508
:105E7000E204BC0497047404510431041104F203D5
:105E8000D403B8039C0383036C035803B70E650E59
:105E9000150EC80D800D390DF50CB60C770C3A0CAB
:105EA000020CCA0B930B610B2E0BFD0ACF0AA20A40
:085EB000760A4C0A230A0000E7
:045EB800F9270008BE
:105EBC0080D40000600800000032000020000000C8
:105ECC006000000040000000400600008000000060
:105EDC00200000000019000040000000000000003D
:105EEC00800300008007000000000000E0FF0100BC
:105EFC00E0FF0100E0FF010080F3FFFF080000005D
:105F0C00200000000000000040060000E0FFFFFF42
:105F1C00C0F9FFFFC0030000C003000040010000F7
:105F2C004029000040380000004100008043000080
:105F3C0080F3FFFF007D00006AFFFFFF6AFFFFFF99
:105F4C00C500000000000000800C000000000000F4
:105F5C0000EE020000000000400000000000000005
:105F6C005E000000000000000000000000000000C7
:105F7C000000000000000000000000000000000015
:105F8C000000000000000000000000000000000005
:105F9C0000000000000000000000000000000000F5
:105FAC0000000000000000000000000000000000E5
:105FBC0000000000000000000000000000000000D5
:105FCC0000000000000000000000000000000000C5
:105FDC0000000000000000000000000000000000B5
:105FEC0000000000000000000000000000000000A5
:105FFC000100000001000A000100000000127A00FC
:08600C0000127A0000127A0074
:0400000508003EE5CC
:00000001FF
