:020000040800F2
:1010000000500020814000087F4000087D4000081B
:101010007D4000087D4000087D4000080000000081
:101020000000000000000000000000007F400008F9
:101030007F400008000000007F4000087F4000085B
:101040007D4000087D4000087D4000087D4000088C
:101050007D4000087D4000087D4000087D4000087C
:101060007D4000087D4000087D4000087D4000086C
:101070007D4000087D4000087D4000087D4000085C
:101080007D4000087D4000087D4000087D4000084C
:101090007D4000087D4000087D4000087D4000083C
:1010A00089190008C91900087D4000087D40000822
:1010B000712000087D4000087D4000087D40000848
:1010C0007D4000087D4000087D4000087D4000080C
:1010D0007D4000087D4000087D4000087D400008FC
:1010E0007D4000087D4000087D4000087D400008EC
:1010F0007D4000087D4000087D4000087D400008DC
:101100007D4000087D4000087D4000087D400008CB
:101110007D4000087D4000087D4000087D400008BB
:101120007D4000087D4000087D4000087D400008AB
:101130007D4000087D4000087D4000087D4000089B
:101140007D4000087D4000087D4000087D4000088B
:10115000F8B5232001F078F8154A0646252092E8D4
:1011600028001D4401F070F80746262001F06CF8B5
:101170000224384490FBF4F3734395FBF4F55B11C0
:10118000EA1A1D446E110B4D52112846214622EADF
:10119000E27202F063FE2846B6F5805FB4BF3246C5
:1011A0004FF480520421BDE8F84002F057BE00BF62
:1011B000A401002000080040834B2DE9F04F1A687D
:1011C00087B001321A60186802F050F900242546F1
:1011D000EEB2B01CC0B201F0A1FE4701312001F017
:1011E00039F8DFF8FC8118B948F80470FFF7B0FF50
:1011F00058F8043006F12500C0B2FF1A01F024F8B7
:101200007F0197FBF0F7DFF8DC8106F13400394607
:10121000C0B201F02FF854F80830002FB8BF7F4259
:101220009F42ACBF39461946684F44F80810D7F8BA
:101230000090B9F1000F0BD11623594306F1370086
:10124000491144F80810C0B201F014F844F80890AD
:101250000135022D04F10404BAD13B68002B40F0A3
:101260009880422000F0F0FF0446412000F0ECFF9F
:101270008046342000F0E8FF8146352000F0E4FF8E
:101280000646322000F0E0FF514B4FF0160B1B8852
:101290000BFB00F05B01640194FBF3F44D4BDFF8B2
:1012A00048A131461A8845114B4E484601F0F2FFDD
:1012B000DAF8003030685B4340435B1103EB6010A9
:1012C00001F056FB654336686D1106FB05FC3C22B8
:1012D0004FEA6C1C034698FBF2F8C9200CFB04FC97
:1012E00000FB08F84FEA6C1C4FEA4C114FEA6818F3
:1012F00091FBF8F8DAF80010CDF8108069434FF44C
:101300007A78491191FBF8F16143491105914FEA4F
:10131000461931466643392099FBF3F9019302924D
:10132000CDF80CC0761100F0A5FF3A20DAF80010D5
:1013300000F0A0FF0BFB06F13320491100F09AFFEB
:1013400029EAE9793620294600F094FF3E20B9F1D8
:10135000200FB4BF4946202100F08CFFDDF80CC0FF
:101360003B209CFBF8F100F085FF029A059910469E
:1013700000F080FF019B3D206B435B1193FBF8F86D
:1013800008FB04F1491100F075FF3F20049900F0BB
:1013900071FF3B68114C0133DBB23B60236873B9CA
:1013A0000E2001F007FA2B2000F054FF05464120E3
:1013B00000F050FF400095FBF0F5256001E0013B97
:1013C000236007B0BDE8F08F8C010020940100205D
:1013D000E44F00089A0100204C030020A0010020E7
:1013E000A4010020B40100205003002038B546209D
:1013F00000F030FF0446042001F0DCF901F00AFCA3
:101400000146412000F02EFF01F004FC632814D8AF
:10141000092001F0A9F928B10A2001F0A5F908B9BD
:1014200001240AE0092001F09FF930B90A2001F0F7
:101430009BF9002818BF4FF0FF34092001F094F900
:1014400028B90A2001F090F9002808BF002420469E
:1014500001F05EFF0B2001F087F950B1082001F088
:1014600083F930B10C2001F07FF910B15020012137
:1014700001E05020002100F0F5FE072001F074F992
:10148000324DB8B9172000F0E5FE40B9052001F053
:101490006BF998B101F0BEFB2D4B18600EE00520F2
:1014A00001F062F910B12B78002B49D0052001F032
:1014B0005BF918B9264B4FF0FF321A60052001F096
:1014C00053F921462870462000F0CCFE052001F09B
:1014D0004BF90146492000F0C5FE062001F044F911
:1014E00001464A2000F0BEFE072001F03DF901460A
:1014F0004B2000F0B7FE082001F036F901464C20E1
:1015000000F0B0FE092001F02FF901464D2000F057
:10151000A9FE0A2001F028F901464E2000F0A2FEA3
:101520000B2001F021F901464F2000F09BFE0D2019
:1015300001F01AF9BDE838400146512000F092BE92
:1015400001F068FB024B1860B0E700BF8401002087
:101550008003002038B50A2000F07CFE094B0B30D8
:10156000C4B20C201C7000F075FE05460B2000F084
:1015700071FEA9B20246204600F060FC024B1880C2
:1015800038BD00BFAE010020AC0100202DE9F04FB6
:10159000312085B000F05EFE0746202000F054FEAA
:1015A0008046212000F050FE0646222000F04CFE2E
:1015B0000446272000F048FE8146042001F0AEFCDE
:1015C000AF4B1A6800EB4210821A52111A60920255
:1015D00092FBF9F545454FF0020001DBB54202DD13
:1015E00001F0D4F801E001F0DBF8A54206DD31207E
:1015F000002100F037FE012001F0C8F82946322012
:1016000000F038FE002001F089FC0290012001F07A
:1016100085FC02990390432000F024FE44200399A6
:1016200000F020FE02A8002101F078FE28B9012078
:1016300001F0ACF8012001F041FF012103A801F005
:101640006DFE0720029E039C01F08EF821460246A3
:10165000304601F083FE804601F0DCFA01F0BAFE6C
:101660000446472000F0F0FD01F0F4FE064601F0CC
:10167000D1FA01F0C3FE8246142000F0EBFD0028F1
:1016800000F05E81072001F06FF8002800F058811B
:1016900044467C4A1368002B0DDD7B4A1268934256
:1016A00009DDB8F1000F05DB05D0C245ACBF5446DB
:1016B000444600E05446512000F0CCFD90B1002C8F
:1016C00007DB182000F0C6FD8442C0F252811820CA
:1016D00005E0192000F0BEFD84420BDC192000F06B
:1016E000B9FD0446632E0EDC002C05DBB442A8BF16
:1016F000344605E0632E06DC7642B442B8BF344679
:10170000012001F043F82146452000F0ABFD2920DF
:1017100000F0A0FD82462A2000F09CFD8046282093
:1017200000F098FD83462C2000F094FD81462D208A
:1017300000F090FD554C014606202668009101F00E
:10174000EDFB06EBC036062001F0E8FB301AC613AD
:1017500026604F4E05203368019301F0DFFB019BAB
:1017600003EB80430520019301F0D8FB019B009916
:10177000181A8014C9B2306001F0A8FC5FFA89F130
:101780000646206801F0A2FCBBF1010F0CBF43111B
:1017900073110AFB0382044682F310023D480621BE
:1017A00002F05CFB4720214600F064FD48203146F2
:1017B00000F060FDBB1E012B40F28F80032000F083
:1017C00043FD0446062000F03FFD0646452000F09C
:1017D0003BFDB0F1000833DB4FEA480AB8F5C86FAB
:1017E00056442BDB042000F02FFD8346022000F03E
:1017F0002BFD8146402000F027FD8046012000F0AF
:1018000023FD8045C6BF09EB0802A2EB4002C8EBEE
:10181000090252005201C4EB0B0192FBF0F3AAF54E
:10182000486A4B430AFB01F10BEB631B491164232C
:1018300091FBF3F10C44A345B8BF5C460F202BE0AD
:101840001D2000F001FD824601F0CEF95045C8F19F
:101850000006C4F1000407D201F0C6F94001B0FB54
:10186000FAFA06FB0AF676091E2000F0EDFC40426B
:1018700086424FF00F000FDB00F088FF0EE000BF44
:101880009001002080030020700300209C010020B4
:10189000B00100200008004000F082FF302000F07E
:1018A000D3FCC000B6F5486FD4BF861900F5486672
:1018B000302000F0C9FC311AC910302000F0DAFCE9
:1018C0002E2000F0C1FC04EBC0042E2000F0BCFC74
:1018D000211AC9102E2000F0CDFC1F2000F0B4FC0E
:1018E00085420CDB452000F0B5FC002807DC062013
:1018F00000F03AFF18B10B2000F036FF20BB204C5F
:101900007FB9322342203946236000F0ABFC00F05F
:101910008FFB384600F044FF1A4A4FF0FF33136044
:101920002BE02368002B07D1FFF714FE012000F005
:1019300037FF4FF0FF3301E01FDD013B23601CE068
:101940004445B8BF4446A4E6082000F00DFF002837
:10195000D5D0002000F01AFF012000F021FF032065
:1019600000F01EFF3120012100F07CFC01F084FD1D
:10197000C5E7632E7FF7BAAEC5E605B0BDE8F08FC8
:10198000880100208003002008B50E48802102F065
:101990003BF83120002100F065FC012000F0F6FE4C
:1019A0000B2000F0E1FE08B9032006E0082000F05B
:1019B000DBFE08B9042000E00020BDE8084001F08B
:1019C0007DBD00BF002C01402DE9F74F674802F0B4
:1019D000BBFA0646312000F03DFC654B1A6822F048
:1019E00001021A60431E012B00F28480462000F0A1
:1019F00031FC604B0746D3F800805F4B05201D7813
:101A000000F028FC1FFA80FA302000F023FC834607
:101A10002E2000F019FC0446092000F015FC814638
:101A200001F072F801F0C0F8019001F0DDF800FB60
:101A30000A404845C8BF0024C5EB080504FA08F869
:101A40004E4A019B12884E4C98FBF2F84D4A20EA10
:101A5000E0791188484601EB68181FFA88F803FB03
:101A60000A8A5946A2F80080A4F800A000F096FF68
:101A7000804600F0BBFE4220414600F0F3FB4020D0
:101A8000494600F0F7FB20883F4C00F0CBFE23686E
:101A9000EDB2EB40236063684220EB406360A368D3
:101AA00023FA05F5A56000F0D5FB10B9A0606060D1
:101AB00020602E480021226802F0D0F9002F324D1C
:101AC0002A484FF0020106D12A6802F0C7F92748D8
:101AD00004212A683AE006DD6A6802F0BFF923486B
:101AE0000421AA6832E0AA6802F0B8F91F4804216C
:101AF0006A682BE003282BD1302000F0ABFB1E4B93
:101B000000211C7800FA04F4184802F045F917483F
:101B1000012102F041F91548022102F03DF9134874
:101B2000042102F039F91148052102F035F90021AC
:101B30000A460E4802F092F964220C480221B4FBD6
:101B4000F2F202F08BF909480421002202F086F932
:101B5000064802F0F9F9B6B2811B48235220B1FBC6
:101B6000F3F103B0BDE8F04F00F07CBB002C014066
:101B7000102C0140E84F0008AE010020AC0100200D
:101B80009A010020980100206002002038B5FFF77C
:101B9000DFFA072000F05EFBC0B201F05FF80D2015
:101BA00000F058FB80B201F04BF8012000F04CFB34
:101BB00000F036FF002000F04DFB00F02BFF082066
:101BC00000F042FB00F00AFF242000F043FB00F08D
:101BD00013FE0E2000F03EFB194D1A4C28600F201A
:101BE00000F038FB2060102000F034FB686011200A
:101BF00000F030FB60601B2000F02CFB124B1860E3
:101C00001A2000F027FB114B18601C2000F022FB6B
:101C10000F4B1860122000F01DFB0E4B18601520B2
:101C200000F012FB0C4B1860162000F013FB0B4B5E
:101C30001860132000F008FB094B186038BD00BF86
:101C400054030020600300207C0300206C0300206C
:101C50007403002070030020780300205C03002040
:101C60006803002008B500F03BF800F04FFD00F0DD
:101C700089F800F0B3F8FFF76DFC00F09DFA01F071
:101C800085F900F0D9FE01F0C1FA5320FFF77EFF7D
:101C90000E4B188800F0CAFE00210A4664230C4847
:101CA00000F03AFA002101220A230A4800F034FA2F
:101CB000002102220123084800F02EFA032000F040
:101CC00065FD064800F01AFB002008BDE44F00083F
:101CD000ED1300088D150008B911000800480040F8
:101CE00038B501F037FE042001F020FE0320214C1E
:101CF00001F008FE204B214A20461A60042102F020
:101D000083F92046082102F07FF92046102102F0D5
:101D10007BF92046202102F077F9194D2046402119
:101D200002F072F920464FF4807102F06DF92846F6
:101D30004FF4802102F068F920464FF4006102F070
:101D400063F92846022102F05FF928460421083D84
:101D500002F05AF92846012102F056F920464FF4C4
:101D6000007102F051F928464021BDE8384002F0E8
:101D70004BB900BF181002400CED00E00003FA055B
:101D80001C10024010B5134C02224FF4806312481D
:101D9000032101F0F3FC20464FF4E13102F0D6F8C4
:101DA0002046082102F0E6F820464FF4005102F0E8
:101DB000EAF820460C2102F0F2F82046002102F059
:101DC000E8F82046002102F0F0F82046BDE8104077
:101DD00002F0F1B800480040000C014008B519209D
:101DE00002F09EF90021192002F0A8F9182002F053
:101DF00097F9BDE808401820002102F09FB90000C3
:101E000010B50D4C0021204601F092FF2046022122
:101E100001F08EFF2046042101F08AFF20460121B7
:101E200001F086FF2046032101F082FF20460521B4
:101E3000BDE8104001F07CBF002C014070B50124CA
:101E40008440754815460E4601F00AFE724820216E
:101E500001F0EDFD704801F0E5FD704B46F66802BB
:101E60001A6068225A606C485DB1002101F02CFFB5
:101E70006948022101F028FF6748042101F024FF8E
:101E80000AE0294601F0ECFE6348022101F0E8FE79
:101E90006148042101F0E4FEFFF7B2FF5E4801F063
:101EA000FBFF5D4801F0EAFF5B4802F003F85A4887
:101EB00002F00EF8584802F019F8574802F024F8DA
:101EC0003146554802F02EF85348002101F098FFA2
:101ED0005148022101F094FF4F48042101F090FF86
:101EE0004D48012101F08CFF4B48032101F088FF90
:101EF0004948052101F084FF4748012102F020F8FC
:101F00004548802101F08BFD4348012101F078FD17
:101F10004148802101F074FDA4B23F48002101F046
:101F2000A9FD21463C4801F0B3FD3B48012101F0E9
:101F3000A3FD00210A46384801F090FF36480221EF
:101F4000002201F08BFF00220421334801F086FFBC
:101F5000314801F080FD324801F082FD0021304817
:101F600001F065FD2E4801F05DFD2D48022106229D
:101F700001F090FD2A480421062201F08BFD062184
:101F80000A46274801F086FD2548022101F04EFE51
:101F90002348042101F04AFE2148062101F046FEB3
:101FA0001F48022101F05CFE1D48042101F058FE8B
:101FB0001B48062101F054FE1948022101F0B8FE29
:101FC0001748042101F0B4FE1548062101F0B0FEC7
:101FD0001348012101F0B4FF1148002101F04AFD2E
:101FE0004FF480510E4801F053FD0D4801F033FDD0
:101FF0000C48032102224FF4E06301F0BFFB0A48C2
:10200000032102224EF2803301F0B8FB074BB3FBF1
:10201000F4F080B270BD00BF002C0140182C0140CC
:102020000008004000080140000C0140005125025A
:1020300010B50D4C0021204601F0AEFE20460221D5
:1020400001F0AAFE2046042101F0A6FE204601214F
:1020500001F0A2FE2046032101F09EFE204605214C
:10206000BDE8104001F098BE002C01407047000010
:1020700008B5224B1A6892070CD51A6822F00202A2
:102080001A601F4B1B6898471E4B1F491A68098826
:102090000A441A60194B1A6850070CD51A6822F0C6
:1020A00004021A60164B5B689847184B16491A6869
:1020B00049880A441A60114B1A6811070CD51A682E
:1020C00022F008021A600E4B9B689847104B0E498D
:1020D0001A6889880A441A60084B1A68D2060CD517
:1020E0001A6822F010021A60054BDB689847094B0A
:1020F00005491A68C9880A441A6008BD10000040E2
:10210000BC01002034000040CC0100203800004019
:102110003C00004040000040F0B5002935D1032AC2
:1021200033D8DFE802F0020D05081026184D0AE04A
:102130001026184D02E0184D4FF48056174903E061
:10214000174D4FF4805617494FF08044276827F009
:10215000010727600F683E430E602B600225954003
:10216000114903EB83030E689B0035430D600F4953
:1021700041F822000E49002021F812300D4B186062
:10218000236843F001032360F0BD4FF0FF30F0BD42
:10219000340000403C000040400000401C00004073
:1021A00038000040180000400C000040BC01002036
:1021B000CC0100202400004008B50121104801F0A6
:1021C00023FF1C2001F0ACFF1C20F02101F0B6FF22
:1021D0004FF0804380221A604FF461629A62094A8C
:1021E0004FF6FF7313600848084A094903801160DD
:1021F0004380516083809160C380D16008BD00BF7F
:102200001C1002402C000040CC010020BC0100202A
:102210006D2000080A4A10B5182404FB002202F1C0
:1022200008049268914209DB6268914206DC054A23
:1022300042F82010FFF7AAFC002010BDFF2010BDBF
:102240005C41000800000020014B53F8200070475B
:1022500000000020024B53F820004011704700BFDF
:1022600000000020024B490143F82010704700BFD6
:1022700000000020014B43F82010704700000020B0
:1022800070B50646002418226243064B3146D058EA
:10229000E5B200F0D5F918B10134532CF3D154252F
:1022A000284670BD5C410008024B182202FB00303A
:1022B000704700BF5C410008044B182202FB00334A
:1022C0009868DB68C01A18BF012070475C4100089D
:1022D00010B5084B002203F5F96053F8041C19B13E
:1022E00053F8081C044C11511833834202F10402C4
:1022F000F3D110BD74410008000000202DE9F84F13
:102300002C4B0026814618603546B2463746344687
:10231000484601F060FE5FFA80F84146484601F009
:102320004FFEB8F10A0F04D0B8F10D0F01D07E2C8A
:1023300015DD45B16B6838462E460025BA469847EC
:102340002F462C46E4E7002CE2D01B4C14F8011F6A
:1023500019B1484601F034FEF8E70C46D8E7B8F169
:10236000210F4FF0000B06D1002ED0D073685046DD
:1023700098475C46CCE7114B03F80480013403F81E
:1023800004B09B46002FC3D1DFF8348058F8081CF6
:10239000A8F1080531B1094800F052F908F1080820
:1023A0000028F3D12A6812B10BEB0407B0E71546F9
:1023B000AEE700BFD40100209D4C0008D8010020EA
:1023C000C44C000808B5034B81B2186801F0F8FD51
:1023D000002008BDD4010020704708B501F098FE28
:1023E00001F090B810B5084800F078FD0024E0B284
:1023F000FFF75AFF034693E806000448013400F053
:102400006DFD532CF3D110BD344D0008564D00081E
:1024100070B50024E5B22846FFF746FF0668284657
:10242000FFF712FF013402463146034800F056FD23
:10243000532CEFD170BD00BF604D00082DE9F7436C
:10244000184800F04BFD00252027EEB23046FFF77C
:102450002BFFD0F80090D0F8048004463046FFF7F8
:10246000F3FE394600904A460F48434600F036FDD9
:102470003046FFF721FF30B104F108010EC90B48C7
:1024800000F02CFD02E00A4800F028FD0135532D34
:1024900001D02C27D9E7074803B0BDE8F04300F08E
:1024A0001DBD00BF694D00086B4D00089B4D000825
:1024B000C84D0008CF4D000873B50E4800F00EFD62
:1024C0000D4800F00BFD0024E6B23046FFF7ECFEAD
:1024D00005463046FFF7F0FE38B12B6907480093F8
:1024E0002968AA68EB6800F0F9FC0134532CEBD1A1
:1024F00002B070BDD54D0008EC4D0008084E000834
:1025000008B500F025FEBDE808400146014800F08E
:10251000E5BC00BF1B4E000808B500F0DCF800F079
:10252000FEF96028014604DC3120FFF7A3FE0348D2
:1025300000E00348BDE8084000F0D0BC374E00087A
:102540004A4E000808B531200021FFF78BFEBDE898
:102550000840014800F0C2BC604E000808B5FFF713
:10256000B7FEBDE80840014800F0B8BC734E000853
:1025700070B500F0B0F8044620462C2100F077F842
:1025800000230678054603702046FFF779FE2C46A7
:10259000542804F8016B06D0FFF756FE01460548A3
:1025A00000F09CFC02E0044800F098FC2B782C2BF7
:1025B000E2D070BD644D0008854E000838B500F0CB
:1025C0008AF82021044600F052F803780BB90F482E
:1025D0000FE0002300F8013B00F0A1F9054620467A
:1025E000FFF74EFE54280AD02946FFF713FE20B904
:1025F0000748BDE8384000F071BC0648F9E72146BD
:102600000548BDE8384000F069BC00BF994E00089D
:10261000B44E0008BD4E0008D24E000808B500F0C8
:10262000F5FD18B9FFF7B2FA034800E00348BDE82A
:10263000084000F053BC00BFE94E0008FD4E000802
:1026400010B5013810F8013F0C4623B111F8012BE9
:102650000AB19342F6D02078C01A18BF012010BDED
:102660000023C25C0AB10133FBE7184670470346FA
:10267000184613F8012B0AB18A42F9D17047002994
:10268000F0B5034605DA2D2003F8010B4942012677
:1026900001E002D000261C4604E0302202704170A6
:1026A0000120F0BD91FBF2F502FB151130312746F8
:1026B000F01A04F8011B291E2044F3DC00222270CA
:1026C0003A469A4206D91978147803F8014B02F871
:1026D0000119F6E7F0BD10B503780446202B00F190
:1026E0000100F9D07BB12046FFF7BAFF0138204442
:1026F000A042034602D800225A7004E01A7801383A
:10270000202AF5D0F7E7204610BD000038B5124C5E
:1027100014F8023C052B1DD0013BDBB2032B06D87D
:102720000E4A0F48D15C0F4AC55CD25C02E000251E
:102730000222294654F8080C34F8043C01F01EF833
:10274000012D05D154F8080C34F8041C01F048F9A7
:102750000834DDE738BD00BF584F0008D84F0008E7
:10276000E04F0008DC4F0008074B10B503EBC00436
:10277000A18853F8300001F038F9A38818420CBF43
:102780000020012010BD00BF504F0008034B03EB99
:10279000C002918853F8300001F022B9504F000870
:1027A000034B03EBC002918853F8300001F01AB9D3
:1027B000504F0008034B03EBC002918853F83000E0
:1027C00001F016B9504F0008024B400933F91000D0
:1027D000704700BFEC4F0008034BC0F58040C0F3CA
:1027E0004A1033F910007047EC4F0008014B186095
:1027F000704700BF6C020020014B1860704700BF9B
:102800005C0200209142B4BF0B4613469142A8BF20
:102810000A468242B8BF02468342D4BFD01810187D
:10282000401070477FB5204B421133F9122003A9A5
:10283000019200F5AA42A0F5AA4055325638C0F3DD
:102840004A10C2F34A1233F9122033F910300292BF
:102850000393164B18886B465A684243D21343F8C9
:10286000042F8B42F8D101A807C8FFF7CBFF104B0C
:102870001D88104B1C680023C4F5803601AA9958A6
:10288000091A995029440C4AA142995001D20021B9
:1028900003E0B14202D94FF48031995004330C2B3C
:1028A000ECD104B070BD00BFEC4F00086C020020FA
:1028B000580200205C02002060020020024B4FF40E
:1028C00000421A80704700BF580200200029ACBFA8
:1028D00001234FF0FF3370B501FB03F601330446CB
:1028E00004BF2D2304F8013B7111642206F01F067A
:1028F000564305460A222046FFF7C1FE76112318EB
:102900002E22092E225403F1010002D830225A70DF
:10291000981C31460A22FFF7B2FE284670BD70B5FA
:10292000037800222D2B06BF01304FF0FF34012425
:10293000054610F8013BA3F13001CEB2092E03D8B1
:102940000A2303FB0212F3E773B10A21002315F8EF
:10295000010F3038C6B2092E06D8400190FBF1F0C5
:1029600003440A204143F2E703EB4210604370BD89
:10297000B0F57A7F2CBF0823042320FA03F3420129
:10298000202B38BF2023B2FBF3F0184440081B1A59
:10299000012B01D90346F6E77047000010B50B4C38
:1029A0000B4B24681A680B4BA0421B6807D350439B
:1029B00003EB902048436423B0FBF3F000E00020D9
:1029C000054B1B68984228BF184610BD74020020B2
:1029D000700200207C02002078020020014B186069
:1029E000704700BF74020020064B1A68064B1B6834
:1029F000D21A064B92021B68B2FBF3F2044B1A6028
:102A0000704700BF780200207C0200204C010020AB
:102A100070020020014B1860FFF7E6BF7C02002027
:102A2000014B1860FFF7E0BF4C010020014B18601C
:102A3000FFF7DABF7802002010B52C4C2C48022199
:102A400001F0E2FA2046472101F014F84FF6FF7139
:102A5000204601F01DF8204600F0F8FF204600F067
:102A6000F0FF244B48F674721A60E1225A619A69A9
:102A70004FF4006142F440729A61204600F0C0FFBA
:102A8000204600F0F2FF2046012101F059FA2046CD
:102A900000F0E1FF184B194A1A60194A5A600A22DD
:102AA00043F8042C53F8082C42F4806243F8082CB5
:102AB00053F8082C42F4807243F8082C53F8082C81
:102AC00042F0800243F8082C53F8082C42F0200210
:102AD00043F8082C53F8082C42F0010243F8082C64
:102AE000084B4FF6FF721A6010BD00BF0004004093
:102AF0001C10024008040040240002403C04004036
:102B00008A02002084020020F8B51E4B1E4F1D686B
:102B10003C88ADB2A54288BF0A34641B002C11DD8D
:102B20001A4E00231A480121337000F072FF48B199
:102B30001748082100F073FF1548012100F06FFFCE
:102B400001233370134A144910680B68B0EB131F4C
:102B50000ED30E48007838B91068104AC01A12888F
:102B600093400344D34001E04FF6FF730B6000E055
:102B700000240B4B0B4A3D8011681A8804FB01248A
:102B80001C80F8BD200002405201002050010020AE
:102B9000000400403C040040840200209E0200200B
:102BA00088020020A002002008B50A4801F0CCF9F4
:102BB000094B1B7843B9094B1B685843084B1B68EA
:102BC000B0FBF3F080B200E00020064B1B881844F5
:102BD00080B208BD0004004050010020A002002087
:102BE0008402002088020020064B1B7843B9064A65
:102BF000064B10681B885843054BB3FBF0F0704739
:102C00000020704750010020840200208002002034
:102C10000048E801064B1B7843B9064A064B10688A
:102C20001B885843054BB3FBF0F0704700207047FA
:102C300050010020840200208002002000879303BE
:102C4000044B18804FF4803393FBF0F0024B186074
:102C5000704700BF80020020A0020020014B1880B6
:102C6000704700BF9E02002028B102681170026800
:102C70000132026070470846FFF7A4BB2DE9F84314
:102C8000141E8046894610DD002219F8021009B191
:102C90000132FAE7A242B4BFC2EB04040C4613F0BF
:102CA000020F14BF3027202700E02027DB070CD4B9
:102CB0002546002D05DD40463946FFF7D5FF013D8D
:102CC000F7E724EAE476A41B00E000263546C6EBCD
:102CD0000903595D21B14046FFF7C6FF0135F6E70C
:102CE0002646002E05DD40463946FFF7BDFF013E72
:102CF000F7E7002CACBF2819281CBDE8F8832DE9A4
:102D0000FF470C9E8146DDF834800C4651B93023D4
:102D10008DF804308DF80510324601A94346FFF7BF
:102D2000ADFF36E033B10A2A04D1002902DA4C4261
:102D3000012700E0002704AD002305F8013DAA4665
:102D400074B1B4FBF2F302FB1344092C03DD0E98BB
:102D5000A0F13A010C44303405F8014D1C46EEE771
:102D600087B14EB118F0020F06D048462D21FFF76B
:102D70007BFF013E012705E02D2305F1FF3A05F811
:102D8000013C00274846514632464346FFF776FF4E
:102D9000384404B0BDE8F087F0B58BB006460D4668
:102DA000059200242B782BB1252B40F08A806A787D
:102DB0006B1C32B9002E00F08B80336800221A7031
:102DC00086E0252A7CD02D2A06BFAB1C01270027D0
:102DD000184602780133302A02D147F00207F7E79C
:102DE000002203780546A3F130015FFA81FCBCF1B3
:102DF000090F00F1010003D80A2303FB0212F0E7D8
:102E0000732B09D1059B3046191D05911968324B6A
:102E1000002908BF19464FE0642B0ED1059B8DE8B1
:102E200084006122191D02920591304619680A2218
:102E30000123FFF764FF044448E0782B06D1059B8B
:102E40008DE88400191D0591612207E0582B0AD1F5
:102E5000059B8DE88400191D0591412202923046A0
:102E6000196810220BE0752B0BD1059B8DE88400AF
:102E70006122191D02920591196830460A22002329
:102E8000D7E7662B0BD1059B07A8191D059119687B
:102E90000492FFF71BFD304607A9049A0CE0632B50
:102EA00014D1059B3046191D1B6805918DF818300B
:102EB00000238DF8193006A93B46FFF7DFFEBAE77D
:102EC0001D4630462978FFF7CFFE0134013569E70A
:102ED00020460BB0F0BD00BFEC5F00080FB407B593
:102EE00004AA52F8041B00200192FFF755FF03B01B
:102EF0005DF804EB04B07047884205DD91420ADCBE
:102F00009042A8BF10467047904205DC9142B4BF82
:102F100008461046704708467047000037B50F4C0A
:102F2000002504EB40042088E189A28BFFF7E4FF31
:102F30002DF805000235082D04F12A04F3D1BDF85F
:102F40000230BDF800001844BDF804301844BDF844
:102F500006301844C0F38F0003B030BDA402002037
:102F6000012806D0022809D070B907290CDCC8B2A4
:102F70007047012908DC01F1080003E0052903DCA2
:102F800001F10A00C0B2704710207047F0B5464802
:102F900087B000F00CFB444800F00EFB424800F004
:102FA00015FB414800F00DFB3F48012100F0EAFA13
:102FB0003D4800F0C3FA00230193019A3B4B9A422B
:102FC00002DC019B0133F7E7374800F0C7FA3648C7
:102FD00000F0CEFA364C002614F8022CF5B2032A83
:102FE000344F28D0012A14F8013C0CD006D3022A11
:102FF00011D1012202FA03F32F4807E0012202FA5D
:1030000003F32E4802E002FA03F32D4800210A469A
:103010009BB200F0B3FB14F8020C14F8011CFFF78C
:103020009FFF06AB2B4403F8100C002327F8153044
:1030300001360234D0E7294602AA1B4800F0CBFA39
:10304000194800F012FB1F4B1F4A17481A605F60B7
:103050000C235D4303F1804303F500331D6053F8F7
:10306000042C42F4806243F8042C53F8042C42F4FC
:10307000807243F8042C53F8042C42F0800243F889
:10308000042C53F8042C42F0200243F8042C53F88B
:10309000042C42F0010243F8042C00F0DCFA024850
:1030A00000F054FA07B0F0BD002401407F38010061
:1030B000F55F0008A4020020001001400008014054
:1030C000000C0140100002404C24014003292DE96E
:1030D000F04124D81D4F09017C18D4F80CC0A67A01
:1030E000BCF80030012E4FF6FF7518BF01251D44B6
:1030F00094F80980ADB2002242450CD2012E3CF872
:10310000123002D1834203DB0CE00EB983420DDDA5
:1031100001321D46F0E760684001BDE8F081002003
:10312000BDE8F081181A46015B1B02E0C01A460197
:10313000EB1A247A785876015B0196FBF3F304FBD3
:1031400002025C43C4EB4210BDE8F08168600008F5
:10315000F0B52A4BADF2044D1A68002442F001028A
:103160001A60E5B22846FFF7A7F8E600A8B128469E
:10317000FFF79AF84369074628464DF83430FFF7C1
:1031800063F800AB1E4470607B691D4E28463360B7
:10319000FFF75AF801343060E3E700AB33440DF534
:1031A000806008338342164907D0002243F8082C78
:1031B00043F8042C0A600A60F3E70B68114CFE9395
:1031C00000F030FF022000F023FF0E4800F098FAD4
:1031D00000AB234403F17843A3F5FE33204619687E
:1031E00000F040FF084B04349C42F1D100F02CFF6A
:1031F000034B18680DF2044DF0BD00BF08300240CB
:103200000030024000FC01080000020838B51C4BE9
:103210001A6842F001021A601A4B53F8041F1A4A46
:1032200011601A498B42F8D1194B1268D3F8F83360
:103230009A4221D10024E5B22846FFF73DF8D0B1EB
:103240002846FFF731F840690023D90001F10062F8
:1032500002F5FE321268824208D101F1006303F5E3
:10326000FE3328465968FFF705F802E001337F2B4B
:10327000EBD10134DFE738BD4FF0FF3038BD00BF80
:1032800008300240FCFB010800300240F4FF010856
:1032900000FC0108F8B51B4B0446104616460F46C5
:1032A0001D68FFF791FA45433046FFF795FA49F25A
:1032B000CC335F4344F6E6116143FF1307EBE13182
:1032C00001FB05F704FB00F6FF130F4B07EBE63796
:1032D00049F6C44677431A686C434FEA820C41436F
:1032E0000CEBE737BA1A9210E4131A60C4EBE13121
:1032F000064B4E431A68970007EBE636B21A921057
:103300001A60F8BD540100204C0300205003002037
:10331000014B1860704700BF540100200D4A03683C
:1033200052F8212010B503F1C804944206DB0A4C80
:1033300054F8211001F1C804A34202DD026000200C
:1033400010BD934201DA026002E08B42C8BF016007
:10335000012010BD5403002060030020F0B5184D7B
:10336000184B6E681C68184BB1421B682F4612DD63
:103370006425891BDFF858C06943DCF804C0C6EB3C
:103380000C0691FBF6F67443734394FBF5F493FB40
:10339000F5F30134013382B90C4B39681A68431ACA
:1033A00002F164050A486B430068411A93FBF1F38C
:1033B0009B1A44BF634393FBF2F31846F0BD00BF72
:1033C00054030020740300206C0300207C030020C1
:1033D00060030020064B074A1B681B1A10685843FD
:1033E000054B1A689042A8BF10464011704700BFB5
:1033F000700300207803002068030020104A114960
:103400001368096810B503FA01F42044C31A43FA9B
:1034100001F10D4B11601B680C4A591A0C4B1268D4
:103420001B6852424B435201B3F5486FA8BF4FF49B
:1034300048639342ACBF18461046401110BD00BF10
:10344000840300205C03002080030020740300201C
:1034500078030020B0F52A6F06DB40F6A1239842DE
:10346000D4BF32200020704764207047014B1860A1
:10347000704700BF88030020034B00221A705A7067
:103480009A70DA701A7170478C03002030B5084BBF
:1034900002460C4603EBC1010D791146054A53F86B
:1034A000343052F825200448BDE83040FFF716BDFF
:1034B0001C6100089C6100084461000870B50D4E55
:1034C0000446335CA3B90C4B186888B10B4D0C4B08
:1034D0002A68214603F8324003EBC2035860FFF725
:1034E000D5FF012333552B68013303F003032B6011
:1034F00070BD00BF8C0300208803002094030020CF
:103500005801002038B50B4B5A681D460AB10024FB
:103510000BE00948BDE83840FFF7E0BC054B195DFA
:103520000834FFF7B3FF202C03D02B19586800286C
:10353000F4D138BD58010020546100088368DB07CE
:1035400003D4836843F00103836070478368DB071B
:1035500003D5836843F0010383607047836800F1FB
:10356000080243F00803836013681B07FCD470470C
:10357000836800F1080243F00403836013685B076B
:10358000FCD4704710B50022134601FA02F403324E
:103590001E2A43EA0403F8D10361002201FA02F46F
:1035A0000332182A43EA0403F8D1C36010BD8368CC
:1035B00023F0010383607047436843F480734360E2
:1035C0007047836823F4006383607047836843F027
:1035D00002038360704710292DE9F04339D8002396
:1035E0006FF03B041D461E461F465FFA83FC0CF13C
:1035F00001085FFA88F8884525D8B8F1060F07D882
:1036000012F8039003EB830809FA08F845EA080565
:10361000ACF10608B8F1050F07D812F8039004F1D1
:103620001E0809FA08F846EA0806ACF10C0CBCF1D1
:10363000050F05D812F803C00CFA04FC47EA0C0782
:1036400001330534D1E7013947EA0157C762066300
:103650004563BDE8F083836800F1080243F480030A
:10366000836013685B02FCD47047836843F4807303
:1036700083607047064B1868064B1B889BB2B3F5F6
:10368000007F82BF044B1B68184300F03500704771
:103690000C200240E0F7FF1F4C20024038B50446E2
:1036A0000D4600F0D9FC124B1B889BB2B3F5007F8E
:1036B00004D9104B9C4201D90F4B00E00F4B1A6804
:1036C00042F001021A60258000F0C6FC084B1B88FE
:1036D0009BB2B3F5007F04D9064B9C4201D9064B3F
:1036E00000E0064B1A6822F001021A6038BD00BFE4
:1036F000E0F7FF1FFFFF07085020024010200240A4
:1037000010B5044600F0A8FC164B1B889BB2B3F51D
:10371000007F09D9144B9C4206D9144B1A6842F019
:1037200002021A60124A05E0124B1A6842F00202C5
:103730001A60114A14601A6842F040021A6000F0E0
:103740008BFC084B1B889BB2B3F5007F04D9064B5A
:103750009C4201D9054B00E0064B1A6822F0020298
:103760001A6010BDE0F7FF1FFFFF0708502002405E
:103770005420024010200240142002402DE9F0475E
:10378000066845684FF6E07C002443FA04F7FF071B
:1037900021D51FFA84F8B8F1070F04D84FEA88073B
:1037A000BFB2B14601E06746A9464FF00F0A0AFAD8
:1037B00007FA29EA0A0907F1020A02FA0AFA01FAE3
:1037C00007F74AEA070747EA0907B8F1070F98BF62
:1037D0003E4688BF3D4601340CF1040C102C1FFA04
:1037E0008CFCD2D106604560BDE8F087024B1A68B8
:1037F00042F080721A60704700100240062827D8F5
:10380000DFE800F004090E13181D2200114B1B689D
:103810009901FBD570470F4B1B681A01FBD5704708
:103820000C4B1B689B00FBD570470A4B1B68980329
:10383000FBD57047074B1B689907FBD57047064BB4
:103840001B689A07FBD57047044B1B689B07FBD589
:10385000704700BF001002402010024024100240B8
:1038600006281FD8DFE800F004060B101517190012
:10387000FFF7BCBF0C4B1A6842F0806211E00A4BA4
:103880001A6842F080520CE0074B1A6842F480320A
:1038900007E0054B02E0054B00E0054B1A6842F0DB
:1038A00001021A60704700BF001002402010024061
:1038B00024100240034B1A6822F0030210431860E0
:1038C000704700BF04100240034B1A6822F47012C4
:1038D00042EA80401860704704100240034B1A68A7
:1038E00022F4803242EA004018607047041002401F
:1038F000034B1A6822F4003242EA404018607047D5
:1039000004100240034B1A6822F4404242EA80301D
:103910001860704704100240034B1A6822F460528A
:1039200042EAC0201860704704100240034B1A6836
:1039300022F4E06242EA002018607047041002405E
:10394000034B1A6822F0F00242EA00101860704738
:103950000410024008B50420FFF782FF0420FFF79F
:103960004DFF0020FFF7A6FF0320FFF779FF03209C
:10397000FFF744FF0120FFF79DFF0020FFF7E0FF66
:103980000320FFF7BFFF0420FFF7D0FF0020FFF761
:10399000C3FF022000F03CFB0720FFF795FF01204A
:1039A000FFF79CFF0020FFF7A3FFFFF71FFF00209A
:1039B000FFF724FF0220FFF77DFF044B044A05496F
:1039C0001360054A1160054A136008BD00A24A044D
:1039D00078010020005125027C0100208001002098
:1039E00001617047090401617047806808407047B1
:1039F000C36821EA03020B4042EA034303617047B4
:103A0000C3681943C1607047C36823EA0101C160FC
:103A1000704703690B420CBF002001207047C94367
:103A200001617047036843F08003036070470368D7
:103A300001F0600123F06003036003680B4303603F
:103A40007047036823F0100303607047036843F076
:103A5000040303607047036843F001030360704789
:103A6000036823F0010303607047436823F00803F1
:103A70004360704781627047044B984203D003F55E
:103A80000063984200D10163704700BF002C0140E1
:103A9000C1627047062900F2C880DFE811F0070014
:103AA000C6003600C6006800C6009600836923F091
:103AB0000303836183698361836923F070038361F6
:103AC000072A00F2B280DFE802F03304080C101479
:103AD000181C836943F0100347E0836943F0200317
:103AE00043E0836943F030033FE0836943F04003E0
:103AF0003BE0836943F0500337E0836943F06003A0
:103B000033E0836943F070032FE0836923F440734B
:103B1000836183698361836923F4E0438361072AB6
:103B200000F28380DFE802F004060A0E12161A1E65
:103B300083691AE0836943F4805316E0836943F490
:103B4000005312E0836943F440530EE0836943F469
:103B500080430AE0836943F4A04306E0836943F4A9
:103B6000C04302E0836943F4E04383617047C36963
:103B700023F00303C361C369C361C36923F0700306
:103B8000C361072A51D8DFE802F03204080C101490
:103B9000181CC36943F0100346E0C36943F02003D7
:103BA00042E0C36943F030033EE0C36943F04003A1
:103BB0003AE0C36943F0500336E0C36943F0600361
:103BC00032E0C36943F070032EE0C36923F440730D
:103BD000C361C369C361C36923F4E043C361072AB6
:103BE00023D8DFE802F004060A0E12161A1EC36973
:103BF0001AE0C36943F4805316E0C36943F40053E9
:103C000012E0C36943F440530EE0C36943F48043B8
:103C10000AE0C36943F4A04306E0C36943F4C04328
:103C200002E0C36943F4E043C3617047062916D834
:103C3000DFE801F0041508150D151100836943F044
:103C4000080302E0836943F4006383617047C3693A
:103C500043F0080302E0C36943F40063C3617047A3
:103C6000062915D8DFE801F0041408140C1410001C
:103C7000036A23F002030AE0036A23F0200306E04C
:103C8000036A23F4007302E0036A23F4005303621F
:103C90000C4B984203D003F50063984211D10329DD
:103CA00007D0052909D001290BD1036A23F00803A5
:103CB00006E0036A23F0800302E0036A23F4006352
:103CC00003627047002C0140062915D8DFE801F097
:103CD000041408140C141000036A43F002030AE0F1
:103CE000036A43F0200306E0036A43F4007302E032
:103CF000036A43F4005303620C4B984203D003F56C
:103D00000063984211D1032907D0052909D0012960
:103D10000BD1036A43F0080306E0036A43F0800313
:103D200002E0036A43F4006303627047002C014021
:103D3000062915D8DFE801F0041408140C1410004B
:103D4000036A43F001030AE0036A43F0100306E04C
:103D5000036A43F4807302E0036A43F4805303620E
:103D60000C4B984203D003F50063984211D103290C
:103D700007D0052909D001290BD1036A43F00403B8
:103D800006E0036A43F0400302E0036A43F4806301
:103D900003627047002C0140062915D8DFE801F0C6
:103DA000041408140C141000036A23F001030AE041
:103DB000036A23F0100306E0036A23F4807302E031
:103DC000036A23F4805303620C4B984203D003F53B
:103DD0000063984211D1032907D0052909D0012990
:103DE0000BD1036A23F0040306E0036A23F04003C7
:103DF00002E0036A23F4806303627047002C0140F1
:103E0000154B984203D003F50063984223D106294D
:103E100021D8DFE801F004080C1014181C004368D6
:103E200023F4807316E0436823F4007312E04368C0
:103E300023F480630EE0436823F400630AE04368E0
:103E400023F4805306E0436823F4005302E0436800
:103E500023F4804343607047002C014006290CD8AE
:103E6000DFE801F0040B060B080B0A004263704701
:103E700082637047C263704702647047054B984283
:103E800003D003F50063984203D1436C43F400432D
:103E900043647047002C0140054B984203D003F562
:103EA0000063984203D1436C23F48043436470471A
:103EB000002C0140054B984203D003F50063984263
:103EC00003D1436C43F4005343647047002C01401A
:103ED000054B984203D003F50063984203D1436C2D
:103EE00043F4805343647047002C0140054B9842D3
:103EF00003D003F50063984203D1436C43F400639D
:103F000043647047002C0140054B984203D003F5F1
:103F10000063984203D1436C43F480634364704769
:103F2000002C0140054B984203D003F500639842F2
:103F300002D1436C19434164704700BF002C01401B
:103F40004369194341617047406A7047064A074B0D
:103F500090421B6804BF064B1B6801EB43034900FA
:103F6000B3FBF1F383607047003801407C0100200F
:103F700080010020C36808290CBF23F4805343F458
:103F80008053C3607047036923F4405319430161B0
:103F90007047C36823F4C0631943C1607047C368A6
:103FA00023F00C031943C1607047436923F4407345
:103FB000194341617047C36843F40053C3607047BD
:103FC00038B504460D4600F017F820462946BDE8EE
:103FD000384000F009B810B5044600F011F820464A
:103FE000BDE8104000F004B8C1F30801416070471B
:103FF0004068C0F30800704703681B06FCD5704793
:1040000003689B06FCD5704703681943016070473D
:10401000034B1A6822F0070210431860704700BF74
:1040200000200240064B1A6842F080021A60054ADE
:1040300043F80C2C02F1883243F80C2C704700BF77
:104040001020024023016745024B1A6842F08002AB
:104050001A6070471020024008B5FFF70BFBC3073A
:10406000FBD408BD38B505460C4689B2FFF716FBF0
:10407000A81C210CBDE83840FFF710BBFEE77047D5
:104080000022184918485318834204D2174BD358BA
:1040900053500432F5E7164A934203D200221A60C5
:1040A0000433F8E7134B144C1A6842F400721A6098
:1040B000124B9C4203D254F8043B9847F8E7104C4B
:1040C000104B9C4203D254F8043B9847F8E7FDF7A5
:1040D000C9FD0D4C0D4B9C4203D254F8043B98474C
:1040E000F8E700BF0000002084010020AC61000858
:1040F0009803002014ED00E0A8610008A861000802
:10410000A8610008AC610008AC610008AC6100085F
:10411000014A024B1A60FEE70400FA050CED00E0CC
:104120004309012200F01F0002FA00F09B0003F196
:10413000604303F56143186070470000432804D9C9
:10414000054B00F00F00C154704700F1604000F5CE
:1041500064400170704700BF14ED00E0244900087E
:104160002A49000800000000A076120080D4000058
:10417000010000002E490008394B00080000000033
:10418000003200006008000002000000344900080E
:10419000394B00080000000000320000003200002F
:1041A0003C0000003C490008394B000800000000BA
:1041B000800C000020000000250000004549000898
:1041C000394B000800000000800C00006000000077
:1041D000210000004E490008724E00082000000037
:1041E00000020000400000002000000058490008C4
:1041F0005F49000800000000800C0000400600003D
:104200000400000061490008724E00080000000030
:10421000000200008000000006000000684900085D
:10422000394B0008000000000032000020000000B0
:10423000220000006D490008394B00080000000012
:104240000032000000190000090000007249000857
:1042500079490008000000008000000040000000D4
:104260000D000000AB490008B24900080000000042
:10427000200000000000000034000000C6490008D3
:104280002A49000800000000E01F00008003000031
:104290000E000000CF490008D649000800010000C8
:1042A00000000400800700000F000000DE49000845
:1042B0002A49000800000000E0FF010000000000A3
:1042C00011000000E54900082A490008000000002C
:1042D000E0FF0100E0FF010012000000EC490008CF
:1042E0002A49000800000000E0FF0100E0FF010093
:1042F0003F000000F44900082A49000800000000BF
:10430000E0FF0100E0FF010040000000FC49000860
:10431000064A000880F3FFFF007D000080F3FFFFE6
:10432000360000000A4A00085F490008000000004B
:10433000800C00004006000041000000174A000801
:10434000204A0008000000002000000000000000DB
:1043500042000000344A0008724E000800000000CD
:10436000800C000008000000350000003C4A0008F6
:10437000724E000800000000000200002000000053
:1043800039000000454A0008504A000800000000BB
:1043900020000000000000003E000000634A00080A
:1043A0005F49000800000000800C0000400600008B
:1043B000370000006E4A00085F49000880F3FFFFE5
:1043C00000000000E0FFFFFF38000000784A00080E
:1043D0005F49000880F3FFFF00000000C0F9FFFF05
:1043E00026000000844A00085F4900080000000021
:1043F000800C0000C0030000130000008B4A00087E
:104400005F49000800000000800C0000C0030000AD
:1044100031000000924A0008394B000800000000FB
:104420000032000040010000270000009D4A000803
:104430005F49000880F3FFFFE0FFFFFFC0F9FFFFC7
:1044400043000000A44A0008F24A000800000000EF
:10445000007D00004029000014000000AA4A000866
:10446000F24A000800000000007D00004038000013
:104470002A000000B14A0008F24A000800000000CB
:10448000007D0000004100002B000000B84A000839
:10449000F24A000800000000007D00008043000098
:1044A00030000000BF4A0008DC4A00080083FFFF1C
:1044B000007D000080F3FFFF16000000C74A0008DF
:1044C0002A49000800000000E0FF0100007D000014
:1044D00018000000D04A0008D84A000880F3FFFF07
:1044E000800C00006AFFFFFF1B000000DE4A00088E
:1044F000D84A000880F3FFFF800C00006AFFFFFF2E
:104500001C000000E64A0008EE4A00080000000017
:10451000E0FF0100C50000001D000000F44A000893
:10452000FC4A0008000000004000000000000000FD
:104530003A000000154B00081D4B00082000E0FF6A
:10454000E0FF1F00800C000028000000234B000843
:104550002A4900082000E0FFE0FF1F0000000000E3
:10456000290000002A4B0008344B0008000000001E
:10457000E0FF1F0000EE02003B0000003C4B000883
:10458000424B000800000000200000000000000076
:104590002D000000574B00085C4B00084000000055
:1045A00060000000400000002E000000754B000875
:1045B000394B000880F3FFFF800C00000000000072
:1045C000000000007F4B0008724E00080000000051
:1045D000000000006200000000000000874B00089F
:1045E0005F49000800000000800C0000000000008F
:1045F000000000008E4B0008954B000800000000F2
:10460000000000000000000000000000B94B00089E
:10461000F24A000800000000000000000000000056
:1046200000000000BD4B0008DC4A0008000000004C
:10463000000000000000000000000000C14B000866
:10464000DC4A00080000000000000000000000003C
:1046500000000000C54B0008DC4A00080000000014
:10466000000000000000000000000000C94B00082E
:10467000F24A0008000000000000000000000000F6
:1046800000000000CD4B0008DC4A000800000000DC
:10469000000000000000000000000000D44B0008F3
:1046A000DC4A0008000000000000000000000000DC
:1046B00000000000DB4B0008DC4A0008000000009E
:1046C000000000000000000000000000DE4B0008B9
:1046D000DC4A0008000000000000000000000000AC
:1046E000000000003A4A0008E14B0008000000000A
:1046F000000000000000000000000000DF4B000888
:10470000E44B000800000000000000000000000072
:1047100000000000994C0008E44B00080000000075
:10472000000000000000000000000000E84B00084E
:10473000724E0008000000000000000000000000B1
:1047400000000000F24B0008EB4B000800000000E6
:10475000000000000000000000000000EE4B000818
:10476000394B0008000000000000000000000000BD
:10477000000000000F4B0008064A0008000000007F
:10478000000000000000000000000000F44B0008E2
:104790002A4900080000000000000000000000009E
:1047A00000000000F84B00082A4900080000000043
:1047B000000000000000000000000000FC4B0008AA
:1047C0002A4900080000000000000000000000006E
:1047D00000000000014C00085F49000800000000D4
:1047E000000000000000000000000000084C00086D
:1047F0000C4C000800000000000000000000000059
:1048000000000000254C00082B4C000800000000B0
:104810000000000000000000000000002F4C000815
:104820002B4C000800000000000000000000000009
:1048300000000000344C0008724E00080000000028
:104840000000000000000000000000003F4C0008D5
:10485000724E000800000000000000000000000090
:1048600000000000494C0008724E000800000000E3
:10487000000000000000000000000000534C000891
:10488000724E000800000000000000000000000060
:10489000000000005D4C0008724E0008000000009F
:1048A000000000000000000000000000694C00084B
:1048B000724E000800000000000000000000000030
:1048C00000000000754C0008724E00080000000057
:1048D000000000000000000000000000824C000802
:1048E000724E000800000000000000000000000000
:1048F000000000008B4C0008724E00080000000011
:10490000000000000000000000000000934C0008C0
:104910009B4C0008000000000000000000000000A8
:1049200000000000626F6F7374006469670066774F
:1049300065616B006670636F6E73740066736C699B
:10494000706D696E0066736C69706D617800706F70
:104950006C65706169727300616D706D696E0025C0
:1049600000656E63666C7400666D696E00666D61ED
:10497000780070776D66727100303D31372E366B7E
:10498000487A2C20313D382E386B487A2C20323D25
:10499000342E344B487A2C20333D322E326B487AF9
:1049A0002C20343D312E316B487A0070776D706F5A
:1049B0006C00303D414354484947482C20313D412B
:1049C00043544C4F57006465616474696D65006EB3
:1049D000756D696D7000496D702F72657600706F2E
:1049E000746D696E00706F746D617800706F7432F1
:1049F0006D696E00706F74326D61780069646C650A
:104A000073706565640072706D0069646C657468CC
:104A1000726F746C696D0069646C656D6F646500BC
:104A2000303D616C776179732C20313D6E6F62721D
:104A3000616B650073706565646B700073706565AC
:104A400064666C74006372756973656D6F6465008C
:104A5000303D427574746F6E2C20313D537769740C
:104A6000636800626D736C696D6869676800626D88
:104A7000736C696D6C6F770062726B6E6F6D7065D1
:104A800064616C0062726B6E6F6D0062726B6D615F
:104A9000780062726B72616D707374720062726B17
:104AA0006F7574007564637377007564636D696E08
:104AB000007564636D6178007564636C696D006F87
:104AC0006375726C696D006D696E70756C736500ED
:104AD000696C316761696E006469672F4100696CB8
:104AE000326761696E007564636761696E0064694D
:104AF000672F560070776D66756E6300303D746D7C
:104B0000706D2C20313D746D7068732C20323D73B4
:104B1000706565640070776D6761696E00646967D0
:104B20002F430070776D6F667300737065656467FF
:104B300061696E0072706D2F6B487A00736E7368D6
:104B40007300303D4A43757276652C20313D5365C4
:104B50006D696B726F6E00736E736D00323D4B54F6
:104B60005938332D3131302C20333D4B54593834A2
:104B70002D3133300066736C697073706E7400761B
:104B8000657273696F6E00616D706E6F6D006F702E
:104B90006D6F646500303D4F46462C20313D5255C7
:104BA0004E2C20323D4D414E55414C5F52554E2CBE
:104BB00020333D424F4F5354007564630069646372
:104BC00000696C3100696C320075616300696C3199
:104BD000726D7300696C32726D7300696400697183
:104BE000006B57006B5641007066004E6D00667397
:104BF00074617400616D7000706F7400706F743256
:104C000000706F746E6F6D00646972002D313D52DB
:104C100045562C20303D4E45555452414C2C2031A8
:104C20003D46574400746D70687300C2B043007411
:104C30006D706D0064696E5F6372756973650064A1
:104C4000696E5F73746172740064696E5F62726131
:104C50006B650064696E5F6D70726F740064696E7D
:104C60005F666F72776172640064696E5F72657609
:104C7000657273650064696E5F656D637973746FE7
:104C8000700064696E5F6F6375720064696E5F6265
:104C90006D7300746D5F6D65617300757300556EA3
:104CA0006B6E6F776E20636F6D6D616E64207365E0
:104CB0007175656E63650D0A000000004A4F0008BB
:104CC000BD250008134F000871250008174F000884
:104CD0005D250008204F000811240008244F00081B
:104CE000E5230008294F0008B92400087D4C00087E
:104CF00045250008434C0008192500082D4F0008E1
:104D000001250008324F00081D260008374F000813
:104D1000D92300083C4F00083D240008414F0008FB
:104D2000E1230008484F0008DB23000800000000D2
:104D300000000000417661696C61626C6520706101
:104D400072616D657465727320616E642076616C4A
:104D50007565730D0A002573205B25735D0D0A00D0
:104D60002573090925660D0A007B0025630D0A20BD
:104D70002020222573223A207B22756E6974223A04
:104D8000222573222C2276616C7565223A25662CC9
:104D9000226973706172616D223A00747275652CBC
:104DA000226D696E696D756D223A25662C226D61E2
:104DB00078696D756D223A25662C22646566617589
:104DC0006C74223A25667D0066616C73657D000D0A
:104DD0000A7D0D0A00506172616D65746572206113
:104DE0007474726962757465730D0A004E616D6545
:104DF00009096D696E202D206D6178205B64656600
:104E000061756C745D0D0A00257309092566202DF6
:104E1000202566205B25665D0D0A00506172616D7C
:104E200065746572732073746F7265642C204352CD
:104E3000433D25780D0A00496E76657274657220CF
:104E4000737461727465640D0A00496E76616C69F1
:104E50006420696E766572746572206D6F6465009A
:104E6000496E7665727465722068616C7465642E33
:104E70000D0A0044656661756C7473206C6F616423
:104E800065640D0A00556E6B6E6F776E20706172EF
:104E9000616D657465720D0A004E6F2070617261FC
:104EA0006D657465722076616C75652067697665DD
:104EB0006E0D0A00536574204F4B0D0A0056616C4D
:104EC0007565206F7574206F662072616E67650D61
:104ED0000A00556E6B6E6F776E20706172616D6542
:104EE0007465722025730D0A00506172616D6574DE
:104EF000657273206C6F616465640D0A00506172A5
:104F0000616D6574657220435243206572726F72E1
:104F10000D0A006765740064656661756C747300E2
:104F2000616C6C006C6973740061747200736176FB
:104F300065006C6F61640068656C70006A736F6E09
:104F4000006572726F7273007265736574000000A1
:104F50000010014000200400001001400004040083
:104F60000010014000080400000C01400200040091
:104F70000010014000100400000C0140200000005F
:104F8000000C014040000000000801400400000047
:104F90000008014008000000000801401000000067
:104FA000001001404000000000100140800000009F
:104FB000000C014000100200001001400001000040
:104FC00000100140000204000008014080000400BD
:104FD00000000000000005000000000302010000C6
:104FE00001000000B5930000100000000000650003
:104FF000C9002E019201F7015B02C002240389035C
:10500000ED035204B6041B057F05E3054806AC0614
:1050100011077507D9073E08A20806096A09CF09D2
:10502000330A970AFB0A5F0BC40B280C8C0CF00C9C
:10503000540DB80D1C0E800EE30E470FAB0F0F1072
:105040007210D6103A119D1101126412C8122B135E
:105050008F13F2135514B9141C157F15E21545165C
:10506000A8160B176E17D01733189618F9185B1976
:10507000BE19201A821AE51A471BA91B0B1C6D1CAE
:10508000CF1C311D931DF51D571EB81E1A1F7B1F07
:10509000DD1F3E209F2000216121C2212322842286
:1050A000E5224623A62307246724C824282588252B
:1050B000E8254826A82608276727C7272628862800
:1050C000E5284429A329022A612AC02A1F2B7D2B07
:1050D000DC2B3A2C992CF72C552DB32D112E6E2E3E
:1050E000CC2E2A2F872FE42F41309E30FB305831B1
:1050F000B53111326E32CA3226338333DF333A345C
:105100009634F2344D35A83504365F36BA36153745
:105110006F37CA3724387E38D93833398C39E63975
:10512000403A993AF23A4C3BA53BFE3B563CAF3CE9
:10513000073D603DB83D103E683EBF3E173F6E3FA5
:10514000C53F1D407340CA4021417741CE412442B2
:105150007A42D04225437B43D04325447A44CF440E
:1051600024457845CD4521467546C9461C477047BC
:10517000C34716486948BC480F496149B449064AC3
:10518000584AA94AFB4A4C4B9D4BEE4B3F4C904C26
:10519000E04C314D814DD14D204E704EBF4E0E4FE3
:1051A0005D4FAC4FFB4F49509750E5503351815103
:1051B000CE511B526852B55202534E539B53E75384
:1051C00032547E54C95415556055AA55F5553F566D
:1051D0008A56D3561D576757B057F95742588B58C0
:1051E000D3581C596459AC59F3593B5A825AC95A7D
:1051F0000F5B565B9C5BE25B285C6E5CB35CF95CAE
:105200003E5D825DC75D0B5E4F5E935ED75E1A5F4B
:105210005D5FA05FE35F25606860AA60EB602D6161
:105220006E61AF61F06131627162B162F1623163EE
:105230007063AF63EE632D646C64AA64E8642565F3
:105240006365A065DD651A6656669366CF660A6774
:1052500046678167BC67F76732686C68A668E06874
:10526000196952698B69C469FD69356A6D6AA46AF6
:10527000DC6A136B4A6B816BB76BED6B236C596CFB
:105280008E6CC36CF86C2D6D616D956DC96DFD6D87
:10529000306E636E966EC86EFB6E2C6F5E6F906F95
:1052A000C16FF26F227053708370B270E27011712F
:1052B00040716F719D71CB71F97127725472817257
:1052C000AE72DB72077333735E738A73B573E07308
:1052D0000A7435745F748874B274DB7404752D7548
:1052E00055757D75A575CC75F3751A76417667761B
:1052F0008D76B376D876FE76227747776B778F7781
:10530000B377D777FA771D783F7862788478A57875
:10531000C778E878097929794A796A798979A97900
:10532000C879E679057A237A417A5F7A7C7A997A24
:10533000B67AD27AEE7A0A7B267B417B5C7B777BDE
:10534000917BAB7BC57BDE7BF87B107C297C417C31
:10535000597C717C887C9F7CB67CCD7CE37CF97C1D
:105360000E7D247D397D4D7D627D767D897D9D7D9F
:10537000B07DC37DD57DE87DFA7D0B7E1D7E2E7EC2
:105380003E7E4F7E5F7E6F7E7E7E8D7E9C7EAB7E80
:10539000B97EC77ED57EE27EEF7EFC7E097F157FDB
:1053A000217F2C7F377F427F4D7F577F617F6B7FCF
:1053B000747F7D7F867F8F7F977F9F7FA67FAD7F66
:1053C000B47FBB7FC17FC77FCD7FD27FD87FDC7F9B
:1053D000E17FE57FE97FEC7FF07FF37FF57FF77F6B
:1053E000F97FFB7FFD7FFE7FFE7FFF7FFF7FFF7FDB
:1053F000FE7FFE7FFD7FFB7FF97FF77FF57FF37FE9
:10540000F07FEC7FE97FE57FE17FDC7FD87FD27F93
:10541000CD7FC77FC17FBB7FB47FAD7FA67F9F7FDE
:10542000977F8F7F867F7D7F747F6B7F617F577FC4
:105430004D7F427F377F2C7F217F157F097FFC7E48
:10544000EF7EE27ED57EC77EB97EAB7E9C7E8D7E72
:105450007E7E6F7E5F7E4F7E3E7E2E7E1D7E0B7E2D
:10546000FA7DE87DD57DC37DB07D9D7D897D767D8E
:10547000627D4D7D397D247D0E7DF97CE37CCD7C84
:10548000B67C9F7C887C717C597C417C297C107C1B
:10549000F87BDE7BC57BAB7B917B777B5C7B417B49
:1054A000267B0A7BEE7AD27AB67A997A7C7A5F7A10
:1054B000417A237A057AE679C879A97989796A796E
:1054C0004A7929790979E878C778A5788478627863
:1054D0003F781D78FA77D777B3778F776B774777F1
:1054E0002277FE76D876B3768D76677641761A7611
:1054F000F375CC75A5757D7555752D750475DB74C3
:10550000B27488745F7435740A74E073B5738A7307
:105510005E7333730773DB72AE72817254722772DB
:10552000F971CB719D716F7140711171E270B27040
:10553000837053702270F26FC16F906F5E6F2C6F2B
:10554000FB6EC86E966E636E306EFD6DC96D956DA7
:10555000616D2D6DF86CC36C8E6C596C236CED6BAA
:10556000B76B816B4A6B136BDC6AA46A6D6A356A30
:10557000FD69C4698B6952691969E068A6686C683D
:105580003268F767BC67816746670A67CF669366CC
:1055900056661A66DD65A06563652565E864AA64DC
:1055A0006C642D64EE63AF6370633163F162B1626A
:1055B00071623162F061AF616E612D61EB60AA6072
:1055C00068602560E35FA05F5D5F1A5FD75E935EF2
:1055D0004F5E0B5EC75D825D3E5DF95CB35C6E5CE9
:1055E000285CE25B9C5B565B0F5BC95A825A3B5A54
:1055F000F359AC5964591C59D3588B584258F95730
:10560000B05767571D57D3568A563F56F555AA557A
:1056100060551555C9547E543254E7539B534E532D
:105620000253B55268521B52CE5181513351E5504D
:1056300097504950FB4FAC4F5D4F0E4FBF4E704ED1
:10564000204ED14D814D314DE04C904C3F4CEE4BB6
:105650009D4B4C4BFB4AA94A584A064AB4496149FA
:105660000F49BC4869481648C34770471C47C9469C
:1056700075462146CD4578452445CF447A44254496
:10568000D0437B432543D0427A422442CE417741E6
:105690002141CA4073401D40C53F6E3F173FBF3E8A
:1056A000683E103EB83D603D073DAF3C563CFE3B7A
:1056B000A53B4C3BF23A993A403AE6398C393339BA
:1056C000D9387E382438CA376F371537BA365F363F
:1056D0000436A8354D35F23496343A34DF3383330B
:1056E0002633CA326E321132B5315831FB309E301A
:1056F0004130E42F872F2A2FCC2E6E2E112EB32D62
:10570000552DF72C992C3A2CDC2B7D2B1F2BC02AE6
:10571000612A022AA3294429E52886282628C727A2
:1057200067270827A8264826E82588252825C8248D
:1057300067240724A6234623E52284222322C221AC
:10574000612100219F203E20DD1F7B1F1A1FB81EF4
:10575000571EF51D931D311DCF1C6D1C0B1CA91B65
:10576000471BE51A821A201ABE195B19F9189618F8
:105770003318D0176E170B17A8164516E2157F15AC
:105780001C15B9145514F2138F132B13C81264127D
:1057900001129D113A11D61072100F10AB0F470F66
:1057A000E30E800E1C0EB80D540DF00C8C0C280C62
:1057B000C40B5F0BFB0A970A330ACF096A09060973
:1057C000A2083E08D90775071107AC064806E3058D
:1057D0007F051B05B6045204ED0389032403C002B0
:1057E0005B02F70192012E01C900650000009BFFDA
:1057F00037FFD2FE6EFE09FEA5FD40FDDCFC77FC06
:1058000013FCAEFB4AFBE5FA81FA1DFAB8F954F92C
:10581000EFF88BF827F8C2F75EF7FAF696F631F64E
:10582000CDF569F505F5A1F43CF4D8F374F310F364
:10583000ACF248F2E4F180F11DF1B9F055F0F1EF6E
:105840008EEF2AEFC6EE63EEFFED9CED38EDD5EC62
:1058500071EC0EECABEB47EBE4EA81EA1EEABBE944
:1058600058E9F5E892E830E8CDE76AE707E7A5E60A
:1058700042E6E0E57EE51BE5B9E457E4F5E393E3B2
:1058800031E3CFE26DE20BE2A9E148E1E6E085E039
:1058900023E0C2DF61DF00DF9FDE3EDEDDDD7CDD99
:1058A0001BDDBADC5ADCF9DB99DB38DBD8DA78DAD5
:1058B00018DAB8D958D9F8D899D839D8DAD77AD7E0
:1058C0001BD7BCD65DD6FED59FD540D5E1D483D4B9
:1058D00024D4C6D367D309D3ABD24DD2EFD192D162
:1058E00034D1D6D079D01CD0BFCF62CF05CFA8CECF
:1058F0004BCEEFCD92CD36CDDACC7DCC21CCC6CB04
:105900006ACB0ECBB3CA58CAFCC9A1C946C9EBC8F9
:1059100091C836C8DCC782C727C7CDC674C61AC6A9
:10592000C0C567C50EC5B4C45BC402C4AAC351C315
:10593000F9C2A0C248C2F0C198C141C1E9C092C039
:105940003BC0E3BF8DBF36BFDFBE89BE32BEDCBD0C
:1059500086BD30BDDBBC85BC30BCDBBB86BB31BB90
:10596000DCBA88BA33BADFB98BB937B9E4B890B8C2
:105970003DB8EAB797B744B7F1B69FB64CB6FAB59B
:10598000A8B557B505B5B4B463B412B4C1B370B318
:1059900020B3CFB27FB22FB2E0B190B141B1F2B03B
:1059A000A3B054B005B0B7AF69AF1BAFCDAE7FAEFB
:1059B00032AEE5AD98AD4BADFEACB2AC65AC19AC5A
:1059C000CEAB82AB37ABEBAAA0AA56AA0BAAC1A951
:1059D00076A92DA9E3A899A850A807A8BEA775A7DE
:1059E0002DA7E4A69CA654A60DA6C5A57EA537A501
:1059F000F1A4AAA464A41EA4D8A392A34DA307A3B0
:105A0000C2A27EA239A2F5A1B1A16DA129A1E6A0F1
:105A1000A3A060A01DA0DB9F989F569F159FD39EBB
:105A2000929E519E109ECF9D8F9D4F9D0F9DCF9C0E
:105A3000909C519C129CD39B949B569B189BDB9AE9
:105A40009D9A609A239AE699AA996D993199F69848
:105A5000BA987F9844980998CE9794975A97209728
:105A6000E796AE9675963C960396CB9593955C9586
:105A70002495ED94B6947F9449941394DD93A79361
:105A800072933D930893D3929F926B9237920392B5
:105A9000D0919D916A9138910591D490A290709087
:105AA0003F900E90DE8FAD8F7D8F4E8F1E8FEF8ECD
:105AB000C08E918E638E358E078ED98DAC8D7F8D85
:105AC000528D258DF98CCD8CA28C768C4B8C208CB4
:105AD000F68BCB8BA18B788B4E8B258BFC8AD38A54
:105AE000AB8A838A5B8A348A0D8AE689BF89998961
:105AF00073894D8928890289DE88B98895887188DB
:105B00004D8829880688E387C1879E877C875B87C5
:105B100039871887F786D786B6869686778657861A
:105B200038861A86FB85DD85BF85A18584856785D6
:105B30004A852E851285F684DA84BF84A4848984FC
:105B40006F8455843B8422840884F083D783BF8389
:105B5000A7838F83788361834A8333831D8307837D
:105B6000F282DC82C782B3829E828A8277826382DB
:105B700050823D822B8218820682F581E381D28198
:105B8000C281B181A18191818281738164815581BA
:105B9000478139812B811E8111810481F780EB803F
:105BA000DF80D480C980BE80B380A9809F8095802B
:105BB0008C8083807A807180698061805A80538074
:105BC0004C8045803F80398033802E80288024801F
:105BD0001F801B801780148010800D800B8009802F
:105BE000078005800380028002800180018001809F
:105BF0000280028003800580078009800B800D8071
:105C00001080148017801B801F80248028802E80A5
:105C1000338039803F8045804C8053805A8061803A
:105C2000698071807A8083808C8095809F80A98034
:105C3000B380BE80C980D480DF80EB80F780048190
:105C400011811E812B813981478155816481738146
:105C500082819181A181B181C281D281E381F5816B
:105C6000068218822B823D825082638277828A82EA
:105C70009E82B382C782DC82F28207831D833383D4
:105C80004A83618378838F83A783BF83D783F0831D
:105C9000088422843B8455846F848984A484BF84CF
:105CA000DA84F68412852E854A8567858485A185E8
:105CB000BF85DD85FB851A8638865786778696866A
:105CC000B686D786F786188739875B877C879E8755
:105CD000C187E387068829884D8871889588B988A7
:105CE000DE88028928894D8973899989BF89E68967
:105CF0000D8A348A5B8A838AAB8AD38AFC8A258B95
:105D00004E8B788BA18BCB8BF68B208C4B8C768C2F
:105D1000A28CCD8CF98C258D528D7F8DAC8DD98D3B
:105D2000078E358E638E918EC08EEF8E1E8F4E8FB6
:105D30007D8FAD8FDE8F0E903F907090A290D490AB
:105D4000059138916A919D91D091039237926B920F
:105D50009F92D39208933D937293A793DD931394EC
:105D600049947F94B694ED9424955C959395CB9546
:105D700003963C967596AE96E79620975A97949719
:105D8000CE97099844987F98BA98F69831996D996A
:105D9000AA99E699239A609A9D9ADB9A189B569B3A
:105DA000949BD39B129C519C909CCF9C0F9D4F9D8C
:105DB0008F9DCF9D109E519E929ED39E159F569F64
:105DC000989FDB9F1DA060A0A3A0E6A029A16DA1C4
:105DD000B1A1F5A139A27EA2C2A207A34DA392A3AD
:105DE000D8A31EA464A4AAA4F1A437A57EA5C5A522
:105DF0000DA654A69CA6E4A62DA775A7BEA707A826
:105E000050A899A8E3A82DA976A9C1A90BAA56AABA
:105E1000A0AAEBAA37AB82ABCEAB19AC65ACB2ACE7
:105E2000FEAC4BAD98ADE5AD32AE7FAECDAE1BAFA7
:105E300069AFB7AF05B054B0A3B0F2B041B190B103
:105E4000E0B12FB27FB2CFB220B370B3C1B312B4FE
:105E500063B4B4B405B557B5A8B5FAB54CB69FB69A
:105E6000F1B644B797B7EAB73DB890B8E4B837B9D8
:105E70008BB9DFB933BA88BADCBA31BB86BBDBBBBE
:105E800030BC85BCDBBC30BD86BDDCBD32BE89BE4E
:105E9000DFBE36BF8DBFE3BF3BC092C0E9C041C18A
:105EA00098C1F0C148C2A0C2F9C251C3AAC302C47A
:105EB0005BC4B4C40EC567C5C0C51AC674C6CDC61A
:105EC00027C782C7DCC736C891C8EBC846C9A1C975
:105ED000FCC958CAB3CA0ECB6ACBC6CB21CC7DCC89
:105EE000DACC36CD92CDEFCD4BCEA8CE05CF62CF5A
:105EF000BFCF1CD079D0D6D034D192D1EFD14DD2F2
:105F0000ABD209D367D3C6D324D483D4E1D440D54C
:105F10009FD5FED55DD6BCD61BD77AD7DAD739D870
:105F200099D8F8D858D9B8D918DA78DAD8DA38DB65
:105F300099DBF9DB5ADCBADC1BDD7CDDDDDD3EDE26
:105F40009FDE00DF61DFC2DF23E085E0E6E048E1BD
:105F5000A9E10BE26DE2CFE231E393E3F5E357E42D
:105F6000B9E41BE57EE5E0E542E6A5E607E76AE77A
:105F7000CDE730E892E8F5E858E9BBE91EEA81EAA6
:105F8000E4EA47EBABEB0EEC71ECD5EC38ED9CEDB5
:105F9000FFED63EEC6EE2AEF8EEFF1EF55F0B9F0AC
:105FA0001DF180F1E4F148F2ACF210F374F3D8F390
:105FB0003CF4A1F405F569F5CDF531F696F6FAF65F
:105FC0005EF7C2F727F88BF8EFF854F9B8F91DFA25
:105FD00081FAE5FA4AFBAEFB13FC77FCDCFC40FDE2
:105FE000A5FD09FE6EFED2FE37FF9BFF286E756C85
:105FF0006C290002010200000500060203020202F1
:1060000004031000F307B0076D072B07E906A90684
:106010006B062E06F205B90581054C051805E70447
:10602000B8048A045F0435040D04E703C2039F0328
:106030007E03330044005A0076009A00C600FC003C
:106040003F018E01ED015B02DC026F031404CC04FE
:1060500094056D06530743083B09360A310B280C9B
:10606000190D020EDF0EB10FE7FFFFFF6A000000FF
:10607000051B010032600008000000006400000001
:1060800005150000F0600008CEFFFFFFAA00000029
:106090000A17000004600008D8FFFFFF2C01000071
:1060A0000A240000A8600008EB08B70883084D0820
:1060B0001708E207AB079007740740070A07D606E0
:1060C000A306710640061006E105B30586055C05CA
:1060D00031050905E204BC04970474045104310439
:1060E0001104F203D403B8039C0383036C03580325
:1060F000B70E650E150EC80D800D390DF50CB60CDA
:10610000770C3A0C020CCA0B930B610B2E0BFD0A99
:10611000CF0AA20A760A4C0A230A0000606100082E
:10612000000000006C6100080200000076610008B9
:106130000200000080610008000000008961000882
:10614000000000005B25755D3A202573202D202579
:10615000730D0A004E6F204572726F72730D0A0044
:106160004F56455243555252454E54005448524F93
:1061700054544C4531005448524F54544C4532000D
:10618000454D435953544F50004D50524F540044C5
:106190004552415445005741524E00008461000869
:0861A0008F6100089661000800
:0461A800BD28000806
:1061AC0080D40000600800000032000020000000D5
:1061BC00600000004000000040060000800000006D
:1061CC00200000000019000040000000000000004A
:1061DC00800300008007000000000000E0FF0100C9
:1061EC00E0FF0100E0FF010080F3FFFF400600002C
:1061FC00000000000800000020000000000000006B
:10620C0040060000E0FFFFFFC0F9FFFFC0030000E5
:10621C00C003000040010000C0F9FFFF402900004E
:10622C0040380000004100008043000080F3FFFF75
:10623C00007D00006AFFFFFF6AFFFFFFC500000042
:10624C0000000000800C00000000000000EE0200C6
:10625C000000000040000000000000006200000090
:10626C000000000000000000000000000000000022
:10627C000000000000000000000000000000000012
:10628C000000000000000000000000000000000002
:10629C0000000000000000000000000000000000F2
:1062AC0000000000000000000000000000000000E2
:1062BC0000000000000000000000000000000000D2
:1062CC0000000000000000000000000000000000C2
:1062DC0000000000000000000000000000000000B2
:1062EC0000000000000000000000000001000000A1
:1062FC0001000A0001000000050000000000000081
:10630C000000000000000000000000000000000081
:10631C00000000000000000000127A0000127A0059
:04632C0000127A00E1
:04000005080040812E
:00000001FF
